S01700004D6F6973747572655F53656E736F722E73726563DC
S1130000B0200020A5BE00009DBF00009DBF0000E1
S113001000000000000000000000000000000000DC
S11300200000000000000000000000009DBF000070
S113003000000000000000009DBF00009DBF000004
S11300409DBF00009DBF00009DBF0000450F000044
S1130050B5AC00009DBF00009DBF000099260000C4
S11300609DBF000065AA00007DAA000095AA0000BB
S1130070ADAA0000C5AA0000DDAA00009DBF0000D3
S11300809DBF00009DBF0000A99C0000BD9C000016
S1130090D19C000000000000000000009DBF000093
S11300A09DBF0000000000009DBF00000000000094
S11300B00000000010B5064C2378002B07D1054B37
S11300C0002B02D0044800E000BF0123237010BDC0
S11300D08C0000200000000054FD0000084B10B507
S11300E0002B03D00749084800E000BF0748036815
S11300F0002B00D110BD064B002BFBD09847F9E72D
S1130100000000009000002054FD000054FD000099
S11301100000000080B582B000AF78607B680022E8
S11301201A70C046BD4602B080BDC04680B582B0DC
S113013000AF02003960FB1D1A70FB1D1B78012BF8
S11301400AD0022B0FD0002B14D10E4B0D4A91690B
S11301503A680A439A610FE00A4B0A4AD1693A683D
S11301600A43DA6108E0074B064A116A3A680A430F
S11301701A6201E0172300E000231800BD4602B014
S113018080BDC0460004004080B582B000AF7860F6
S11301907B6880221A707B6800225A707B68012277
S11301A09A707B680022DA70C046BD4602B080BDFA
S11301B080B582B000AF0200FB1D1A70FB1D1B78D6
S11301C0002B02D0012B07D00DE0084B074A126C1C
S11301D002210A431A6406E0044B044A126C042107
S11301E00A431A64C046BD4602B080BD0008004000
S11301F080B584B000AF78607B681B68FB60FB68E7
S11302005B7EDBB25BB2002B01DA012300E000234A
S11302101800BD4604B080BD80B582B000AF7860E0
S11302207B6800221A707B6800225A707B68002267
S11302305A807B6800221A717B6800221A767B68D8
S113024000221A627B680022DA617B6800229A60CD
S11302507B6806221A737B68C0225201DA817B68AC
S113026000221A747B6800225A747B6800229A74F4
S11302707B680022DA747B6800221A757B682A2264
S1130280002199547B6800225A757B6800229A7574
S11302907B682422002199547B680022DA847B68DD
S11302A000221A857B680022DA757B682B220021E4
S11302B099547B682C2200219954C046BD4602B053
S11302C080BDC04680B598B000AF78600C23FA18A2
S11302D0154B1000190050231A00144B9847144B67
S11302E0FB657B68132B1AD80C23FB187A689200E1
S11302F0D358FB650823FB1818000E4B98470823B6
S1130300FB1800229A700823FB1801221A70FB6D57
S1130310DBB20822BA1811001800074B9847C046F0
S1130320BD4618B080BDC046F8F80000ADE9000035
S1130330FFFF0000890100001DBE0000F0B589B078
S113034000AF786039601F23FB1800221A70102355
S1130350BB611723FB1800221A707B681B683B6182
S11303600C23FB181800CE4B98473B681A780C23D3
S1130370FB181A700C23FB1819001E20C94B984750
S11303801E20C94B98473B682C229B5C002B40D015
S11303901623FB183A682B21525C1A703B68197BB0
S11303A01523FB181622BA1812788A181A703B689B
S11303B02C22995C0F23FB181522BA1812788A187C
S11303C01A7018E01623FB181B780F2213403A68A2
S11303D0127B9B181800B54B98471523FB181A7805
S11303E01523FB1801321A701623FB181A781623EA
S11303F0FB1801321A701523FA180F23FB18127810
S11304001B789A42DED33B68DB891800A74B9847D8
S113041009E03B681B7B1800A44B98473B68DB89C9
S11304201800A24B98473B685B7D9B00DAB23B699E
S11304301A703B689B7DDB015AB23B685B785BB208
S113044013435BB2DAB23B695A703B681B79342BB5
S113045046D89A00964BD3181B689F461F23FB1857
S11304603A68527C1A701723FB183A68127C1A7087
S11304701023BB6136E01F23FB1801221A701723D7
S1130480FB1802221A701023BB612BE01F23FB18F8
S113049002221A701723FB1804221A701023BB615E
S11304A020E01F23FB1801221A701723FB180622D1
S11304B01A701023BB6115E01F23FB1800221A7069
S11304C01723FB1808221A701023BB610AE030239B
S11304D0BB6107E02023BB6104E00023BB6101E0B2
S11304E01723AEE11F23FB181B781B01DBB270221C
S11304F01340DAB21723FB181B781343DAB23B69B3
S11305009A703B68DB7D3F2B01D9172399E13B6847
S1130510DA7D3B69DA70C0467B681800654B984702
S1130520031EF9D13B685A88BB699BB213439AB244
S11305303B6824215B5C9BB2DB009BB213439AB201
S11305403B681B7D9BB29B009BB213439AB23B68F2
S11305509B7C9BB2DB189BB213439AB23B68DB7C57
S11305609BB213439AB23B699A803B681B7E002B73
S113057000D1C4E0BB69102B00D176E002D8002B77
S11305804DD0BCE0202B23D0302B00D0B7E03B680B
S1130590DB7C002B11D03B68DB697F2B0BDC3B68D9
S11305A0DB69803307DB3B681B6A7F2B03DC3B681A
S11305B01B6A803301DA172343E13B68DB69FF2BB5
S11305C004DC3B681B6AFF2B00DC91E0172338E155
S11305D03B68DB7C002B15D03B68DB69364A9342D1
S11305E00EDC3B68DB69354A934209DB3B681B6AD6
S11305F0314A934204DC3B681B6A304A934201DA75
S113060017231EE13B68DB692D4A934205DC3B68F6
S11306101B6A2B4A934200DC6CE0172311E13B6810
S1130620DB7C002B15D03B68DB69264A93420EDC49
S11306303B68DB69244A934209DB3B681B6A214A15
S1130640934204DC3B681B6A1F4A934201DA172376
S1130650F7E03B68DB691D4A934204DC3B681B6A94
S11306601A4A934248DD1723EBE03B68DB7C002BFE
S113067032D03B68DB69164A93420EDC3B68DB6987
S1130680144A934209DB3B681B6A114A934204DC17
S11306903B681B6A0F4A93421EDA1723D1E0C04617
S11306A01501000031BB000075BB0000C50200004D
S11306B048F90000F1010000FF01000000FEFFFF07
S11306C0FF030000FF07000000F8FFFFFF0F00001A
S11306D0FF7F00000080FFFF3B68DB695B4A9342B9
S11306E004DC3B681B6A594A934207DD1723A8E0E0
S11306F0C04604E0C04602E0C04600E0C046C04632
S11307007B681800524B9847031EF9D13B681A7E48
S11307103B691A72C0467B6818004D4B9847031E0C
S1130720F9D13B68DB699AB23B699A83C0467B681E
S11307301800474B9847031EF9D13B681B6A9AB2CD
S11307403B691A841423FB183A682C21525C1A70F2
S11307501423FB181B78002B06D01423FB181A78DB
S11307601423FB18013A1A701423FB181B780F2B5F
S113077004D83B682B229B5C0F2B01D9172360E024
S1130780C0467B681800324B9847031EF9D13B687A
S11307909B683A682B21525C120513431422BA1841
S11307A01278120413433A68D28913433A68127BCD
S11307B01A433B691A613B682A229A5C3B691A75A1
S11307C03B690F229A753B6824229B5C002B1ED048
S11307D03B68DB8C1F4A934201D9172331E03B6805
S11307E0DA8C3B699A843B6828229B5E1A4A9342BE
S11307F005DC3B6828229B5E184A934201DA1723E2
S11308001FE03B6828229B5E9AB23B69DA84144B52
S11308101B68DB089BB21B029AB2E023DB00134087
S11308209AB2104B5C681B686101DD0E0D43E60E45
S1130830ABB2FF210B409BB213439AB23B691A85BA
S113084000231800BD4609B0F0BDC046FFFF0000FC
S1130850F1010000FF0F0000FF07000000F8FFFF98
S1130860246080002060800080B584B000AFF86010
S1130870B9607A60FB68BA681A6080235B02190069
S11308800220154B9847BB681B78DBB21A00012382
S1130890134001D005231AE0BB681B78DBB21A00B1
S11308A00223134001D01C2311E07B685A78FB68B3
S11308B01A71FB681B79002B02D10120074B984762
S11308C07A68FB6811001800054B9847030018006C
S11308D0BD4604B080BDC0462D010000B10100003A
S11308E03D03000080B582B000AF78607B680022D1
S11308F01A70C046BD4602B080BDC04680B582B005
S113090000AF02003960FB1D1A70FB1D1B78012B20
S11309100AD0022B0FD0002B14D10E4B0D4A916933
S11309203A680A439A610FE00A4B0A4AD1693A6865
S11309300A43DA6108E0074B064A116A3A680A4337
S11309401A6201E0172300E000231800BD4602B03C
S113095080BDC0460004004080B582B000AF0200F4
S1130960FB1D1A70064BFA1D127811001F220A4053
S1130970012191400A001A60C046BD4602B080BD04
S113098000E100E080B582B000AF0200FB1D1A70E8
S1130990074AFB1D1B7819001F230B4001219940B6
S11309A00B0019008023D150C046BD4602B080BD63
S11309B000E100E080B584B000AF78607B681B681C
S11309C0FB60FB689B7ADBB25BB2002B01DA01238C
S11309D000E000231800BD4604B080BD80B584B09B
S11309E000AF78607B681B68FB6003200A4B984764
S11309F0C0467B681800094B9847031EF9D1FB6871
S1130A001B889BB2022213439AB2FB681A80C04629
S1130A10BD4604B080BDC04659090000B5090000B8
S1130A2080B584B000AF78607B681B68FB600320EE
S1130A300D4B9847C0467B6818000C4B9847031E23
S1130A40F9D1FB68C1229A71FB68C1221A72FB6852
S1130A501B889BB2022293439AB2FB681A80C04659
S1130A60BD4604B080BDC04685090000B50900003C
S1130A7080B584B000AF78607B681B68FB607B68DE
S1130A8018000D4B98477B6800229A827B680022ED
S1130A90DA82C0467B681800084B9847031EF9D1D8
S1130AA0FB681B889BB2012213439AB2FB681A802D
S1130AB0C046BD4604B080BD210A0000B50900004F
S1130AC080B584B000AF786039607B681B68BB6018
S1130AD03B681A88BB681A803B689B78002B3AD025
S1130AE0012B00D06CE0BB681B889AB2BB681A80EB
S1130AF03B68DB78002B07D0BB681B889BB2802245
S1130B0013439AB2BB681A800F23FB1800221A7091
S1130B101BE0C0467B681800374B9847031EF9D189
S1130B200F23FB181A783B6802329200D1580F2326
S1130B30FB181A787B681800304B98470F23FB1872
S1130B401A780F23FB1801321A700F23FB181B7835
S1130B50002BDED036E0BB681B889BB20422134313
S1130B609AB2BB681A803B68DB78002B01D017234C
S1130B703EE00E23FB1800221A701BE0C0467B687F
S1130B8018001D4B9847031EF9D10E23FB181A7841
S1130B903B6802329200D1580E23FB181A787B6806
S1130BA01800164B98470E23FB181A780E23FB18CF
S1130BB001321A700E23FB181B78012BDED901E0D9
S1130BC0172315E03B681B79002B10D0BB685B88AA
S1130BD09BB28022D20113439AB2BB685A80BB688D
S1130BE05B889BB2064A13439AB2BB685A800023BF
S1130BF01800BD4604B080BDB5090000950C000086
S1130C000080FFFF80B586B000AFF860B9607A60FD
S1130C10FB68BA681A6020210020174B98471423F8
S1130C20FB181800154B98471423FB1802221A705E
S1130C301423FB1819000420114B98470420114B6E
S1130C409847FB681800104B98477B689A78FB68B4
S1130C501A717B681A79FB685A710C4BFA681A602E
S1130C607A68FB6811001800094B984703001800C4
S1130C70BD4606B080BDC046FD080000E508000082
S1130C8031BB000075BB0000710A00009C0D002000
S1130C90C10A000080B586B000AFF860B960FB1DE2
S1130CA01A70FB681B687B61C046FB6818001A4B0E
S1130CB09847031EF9D1FB681B79002B0FD0012B39
S1130CC022D1FB1D1B78012B01D917231FE0FB1D2B
S1130CD01A787B6906329200B968D15016E0FB1D80
S1130CE01B78022B01D9172311E0BB680B4A9342EE
S1130CF001D917230BE0FB1D1A78BB6899B27B69F5
S1130D000C325200D15201E01A2300E000231800F3
S1130D10BD4606B080BDC046B5090000FFFF000017
S1130D2080B584B000AF78600A00BB1C1A807B6871
S1130D301B68FB607B681B79002B01D015230BE03B
S1130D40C0467B681800064B9847031EF9D1FB6820
S1130D50BA1C12889A8200231800BD4604B080BDD4
S1130D60B509000080B586B000AFF860B960FB1D1E
S1130D701A701723FB1800221A70FB1D1B78022B14
S1130D8004D11723FB1800221A701FE0FB681B799B
S1130D90002B0AD0012B11D1FB1D1B78012B12D97A
S1130DA01723FB1817221A700DE0FB1D1B78022B6A
S1130DB00BD91723FB1817221A7006E01723FB1808
S1130DC017221A7002E0C04600E0C0461723FB1841
S1130DD01B78002B15D1FB1D1A78FB680232920098
S1130DE0B968D150FB689B8A9BB21AB2FB1D1B7871
S1130DF0012199400B001BB213431BB29AB2FB684A
S1130E009A821723FB181B781800BD4606B080BDD4
S1130E1080B584B000AF78600A00FB1C1A707B6850
S1130E201B68FB60FB1C1B78022B03D1FB68802230
S1130E30DA710AE0FB1C1B7801229A401300DBB232
S1130E4003221340DAB2FB68DA717B68DB8A9BB257
S1130E501AB2FB1C1B78012199400B001BB21343EF
S1130E601BB29AB27B68DA82C046BD4604B080BD2C
S1130E7080B586B000AF7860314B7A689200D35861
S1130E807B617B691B683B610E23FB187A69D28AFC
S1130E901A807B699B8A9AB20E23FB180E2179185B
S1130EA009880A401A803B691B7ADAB20C23FB18C2
S1130EB01A803B69DB79DBB29AB20C23FB180C2154
S1130EC0791809880A401A800C23FB181B88802291
S1130ED013400CD00E23FB181B880422134002D0AD
S1130EE07B691B6998473B6980221A7224E00C23B2
S1130EF0FB181B88012213400CD00E23FB181B88FF
S1130F000122134002D07B699B6898473B69012208
S1130F101A7211E00C23FB181B88022213400BD019
S1130F200E23FB181B880222134002D07B69DB6866
S1130F3098473B6902221A72C046BD4606B080BD7E
S1130F409C0D002080B500AF0020024B9847C0469E
S1130F50BD4680BD710E000080B582B000AF7860E0
S1130F607B6800221A70C046BD4602B080BDC046F0
S1130F7080B582B000AF02003960FB1D1A70FB1D02
S1130F801B78012B0AD0022B0FD0002B14D10E4B4F
S1130F900D4A91693A680A439A610FE00A4B0A4A7A
S1130FA0D1693A680A43DA6108E0074B064A116AD4
S1130FB03A680A431A6201E0172300E0002318008C
S1130FC0BD4602B080BDC0460004004080B582B07A
S1130FD000AF78607B6880221A707B6800225A70A8
S1130FE07B6801229A707B680022DA70C046BD4695
S1130FF002B080BD80B500AF054B9B78DBB21A0010
S1131000022313405A1E9341DBB21800BD4680BD33
S11310100020004180B584B000AF78607B681B6815
S1131020FB60FB68DB69072213405A1E9341DBB265
S11310301800BD4604B080BD80B582B000AF7860B2
S1131040C0467B681800044B9847031EF9D1C0467C
S1131050BD4602B080BDC04615100000F0B597B083
S113106000AF786139610023FB6300233B650023F3
S1131070FB643B2310229446BC44634400221A7050
S11310807B691B68BB637B691B687B63232310221A
S1131090BA18D4187B6B1800C04B98470300237010
S11310A00C2310229446BC4463441800BC4B98475C
S11310B03B69DB697B643B691B6A3B647B6C002B8B
S11310C006D17B6B00211800B64B984703007B6464
S11310D07B6CDAB20C2310218C46BC4463441A7036
S11310E00C2310229446BC44634402225A707B6C45
S11310F01B0CDBB20C2210218C46BC446244110050
S11311001800A94B98473B6C002B06D17B6B01213F
S11311101800A44B984703003B643B6CDAB20C23E1
S113112010218C46BC4463441A700C23102294464C
S1131130BC44634402225A703B6C1B0CDBB20C228D
S113114010218C46BC44624411001800964B984709
S11311503B699A8A7B69DA803B69DA8A7B691A81FE
S11311603B691B7E002B03D1904B9847031E02D092
S113117080237B6501E000237B653B691B69002BB1
S113118004D03B691B697A6D13437B653B699B689B
S11311907A6D13437B653B6924229B5C002B04D04E
S11311A07B6D8022D20513437B653B699B6A002BD0
S11311B004D03B699B6A7A6D13437B653B692C229F
S11311C09B5C002B05D13B699A6880239B049A425F
S11311D004D17B6D8022120513437B653B692D226C
S11311E09B5C002B04D07B6D8022120413437B652F
S11311F03B692E229B5C002B04D07B6D8022D203A2
S113120013437B65BB6B1A687B6D1A43BB6B1A6017
S1131210BB6B802252005A60232310229446BC44A4
S113122063441B781433DBB21800614B9847030006
S1131230FB623B691B68FA2292005343BB623B6921
S11312405B68FA22920053437B623B691B8E3B62CC
S1131250584BF86A984705000E00564BB86A9847F1
S1131260B860F960534BF86A9847534C534A544B4F
S1131270A04703000C003B607C604E4B386A9847E3
S113128002000B004C4C38687968A04703000C003E
S1131290180021004B4C00224B4BA04703000C00CC
S11312A01A002300444CB868F968A04703000C00F6
S11312B01A002300454C28003100A04703000C000D
S11312C01D002600BB6A5A003A4B100098470200E2
S11312D00B003C4C28003100A04703000C00180010
S11312E021003A4C00223A4BA04703000C001D0099
S11312F02600BB6A5A002F4B1000984702000B00CF
S1131300344C28003100A04703000C0019002200CF
S1131310314B0800110098470300FB633B699A684E
S113132080239B049A426AD1224BF86A9847254C41
S113133002000B00A04703000C001D0026001D4BFB
S1131340786A98471C4C0022244BA04703000C00E9
S11313501A0023001F4C28003100A04703000C0092
S113136018002100194C0022194BA04703000C005F
S113137019002200184B0800110098470300FB6471
S1131380FB6C002B2ED0164B796AF86A9847030041
S11313909A1EFB6CD31A3B6531E0C046CD37000082
S11313A0CD0F00000D3600001DBE0000F50F00003B
S11313B055BC0000F1E80000E9DC000095D626E801
S11313C00B2E113E65D0000000002440DDE100003A
S11313D00000F03FBDD6000085E800000000084092
S11313E061C100007B6A5A00FB6AD3185A1E7B6AEB
S11313F059001D4B100098470300013B3B65FB6BF4
S1131400FF2B08DCFB6B002B05DB3B6DFF2B02DCA9
S11314103B6D002B06DA3B2310229446BC44634404
S113142040221A703B2310229446BC4463441B7828
S1131430402B0ED0FB6BFF221A403B6D1B0419009E
S1131440FF231B040B401343FA6C12061A43BB6BB5
S1131450DA603B2310229446BC4463441B78180092
S1131460BD4617B0F0BDC04661C1000080B58AB06A
S113147000AFF860B9607A60FB68BA681A60FB680C
S11314801B687B62FB681B681800254B98470300A8
S11314903B623B6A0233FB613B6A1433BB6101224A
S11314A0FB699A401300190002201E4B984714232D
S11314B0FB1818001C4B98477B681A7B1423FB18F5
S11314C01A70BB69DBB21422BA1811001800174B4A
S11314D09847BB69DBB21800154B98477B681B7BA8
S11314E000211800134B98477B6A1B6802221340A3
S11314F001D01C2310E07B6A1B680122134001D039
S1131500052309E07B6A14221A607A68FB681100DB
S11315101800094B984703001800BD460AB080BD67
S1131520CD370000710F0000590F000031BB0000DF
S113153075BB0000813500005D10000080B584B0EB
S113154000AF78607B681B68FB60FB681B7EDBB2C6
S11315501A00022313400BD0FB6802221A76FB68A0
S11315605B8B9BB21A000223134011D0412310E07D
S1131570FB685B8B9BB21A000423134008D0FB6802
S11315805B68C02292021A43FB685A60182300E089
S113159000231800BD4604B080BDC04680B584B0A9
S11315A000AF78607B681B68BB600E23FB180022C9
S11315B01A800FE00E23FB180E22BA18128801328B
S11315C01A807B681B890E22BA1812889A4201D3AA
S11315D012230EE0BB681B7EDBB21A00012313400A
S11315E006D1BB681B7EDBB21A0002231340E1D094
S11315F000231800BD4604B080BDC04690B585B038
S113160000AF78600A00FB1C1A707B681B68FB60E3
S1131610FB685B688022D2021A43FB685A60FB1C99
S11316201A78FB685A620B23FC187B681800074B76
S1131630984703002370FB6801221A760B23FB18DA
S11316401B781800BD4605B090BDC0469D1500002E
S113165090B587B000AF786039607B681B68FB6029
S11316601423FB183A6852881A801223FB180022AC
S11316701A80FB681B681B01DB0FDBB21A000B230B
S1131680FB18511E8A411A703B685B7A002B06D006
S11316903B689A7A7B6811001800854B9847FB6871
S11316A05B68844A1A40FB685A603B681B7A002BCB
S11316B042D03B681B885A003B685B7A9B03134308
S11316C01A0080231B021A43FB685A621723FC1872
S11316D07B681800784B984703002370FB685B68AD
S11316E0744A1A40FB685A601723FB181B78002BB6
S11316F007D11723FC187B681800704B9847030028
S113170023701723FB181B78002B11D13B681B880F
S11317101B0A9BB2782213439BB25A003B685B7A44
S11317209B031343012213431A00FB685A620FE020
S11317301723FB181B78B6E03B681B885B0001226B
S11317401A433B685B7A9B0313431A00FB685A6293
S11317501723FC187B681800574B98470300237025
S11317600B23FB181B78002B0BD03B685B88012BE9
S113177007D1FB685B688022D2021A43FB685A6077
S113178005E0FB685B684B4A1A40FB685A60172304
S1131790FB181B78002B07D11723FC187B68180053
S11317A0464B9847030023701723FB181B78002B24
S11317B000D075E04BE0FB685B8B9BB21A002023E2
S11317C0134001D141236EE07B68DB7A002B1ED0ED
S11317D00B23FB181B7801225340DBB2002B04D0EF
S11317E01423FB181B88002B09D00B23FB181B7830
S11317F0002B0CD01423FB181B88012B07D1FB688A
S11318005B688022D2021A43FB685A601AE07B6844
S113181018002B4B98473B685A681223FB181B8807
S113182012217918581C0880D318FA682821525CB0
S1131830D2B21A701723FC187B6818001E4B984705
S1131840030023701723FB181B78002B09D11423E2
S1131850FB181B881422BA18591E1180002BAAD118
S113186000E0C0467B689B7A002B0AD07B68180096
S1131870134B9847FB685B68C02292021A43FB68CB
S11318805A607B6818000E4B98473B685A681223CD
S1131890FB181B88D318FA682821525CD2B21A703C
S11318A01723FB181B781800BD4607B090BDC0462F
S11318B0FD150000FFFFFBFF9D1500003D15000016
S11318C03910000080B582B000AF786039607B6861
S11318D001229A727B680122DA723A687B681100ED
S11318E01800034B984703001800BD4602B080BDA2
S11318F05116000090B587B000AF786039607B68FE
S11319001B68FB601423FB183A6852881A807B68B2
S11319101800514B98473B685B7A002B06D03B6814
S11319209A7A7B68110018004C4B9847FB685B68F7
S11319304B4A1A40FB685A603B681B7A002B0DD057
S11319403B681B885A003B685B7A9B0313431A006D
S113195080231B021A43FB685A6209E03B681B8818
S11319605A003B685B7A9B0313431A00FB685A6274
S11319701723FC187B6818003A4B98470300237020
S11319801723FB181B78002B07D11723FC187B683F
S11319901800354B9847030023701723FB181B7856
S11319A0002B52D11223FB1800221A8033E0FB686B
S11319B05B8B9BB21A002023134001D1412347E0E3
S11319C07B681800244B98473B685A681223FB181D
S11319D01B8812217918581C0880D3181978FB68C1
S11319E0282299541723FC187B6818001D4B98472C
S11319F0030023701723FB181B78002B15D1FB68F9
S1131A005B8B9BB21A000423134004D01723FB18EA
S1131A101E221A700AE01423FB181B881422BA1819
S1131A20591E1180002BC2D100E0C0467B689B7A0E
S1131A30002B0AD07B681800074B9847FB685B684B
S1131A40C02292021A43FB685A601723FB181B78C2
S1131A501800BD4607B090BD39100000FD15000008
S1131A60FFFFFBFF9D1500003D15000080B582B00F
S1131A7000AF786039607B6801229A727B6801222A
S1131A80DA723A687B6811001800034B9847030028
S1131A901800BD4602B080BDF518000080B582B0C4
S1131AA000AFA44B1B681B681B8C9BB2002B0AD095
S1131AB0A04B1B681B681B8C9BB21A009E4B10002A
S1131AC09847030000E020237B607B681F2B00D92C
S1131AD004E2984B1B681A687B6808335B01D318CF
S1131AE007331B78DBB23B603B680322134000D111
S1131AF088E001227B689A401300DB431A008F4B75
S1131B001B681A408D4B1A608A4B1B681A687B68E5
S1131B1008335B01D318073303221A70854B1A6804
S1131B20AE217B68D3185B181B781A00012313407D
S1131B3068D07B68DAB2824B1A707E4B1B681B68D4
S1131B407A6808325201D35C9B079B0FDBB2012BEE
S1131B501ED17C4A7B685B01D3185B689B049B0C99
S1131B609BB21A00764B5A80764A7B685B01D31885
S1131B705B681B019B0C9BB21A00714B9A80714AE3
S1131B807B685B01D3185A68920B92035A602CE06D
S1131B906C4A7B685B01D3185B681B019B0C9BB28E
S1131BA01A00674B5A80674A7B685B01D3185B68ED
S1131BB09B049B0C9BB21A00614B9A80614A7B6820
S1131BC05B01D3185A6860490A405A605C4B5B88D1
S1131BD0002B0AD15B4A7B685B01D3185B689B04CA
S1131BE09B0C9BB21A00564B5A80524B1A687B6866
S1131BF002331B01D31804331A684E4B1B68504937
S1131C00180090473B680422134000D1AFE0494BD1
S1131C101B681B687A6808325201D35C9B065B0F11
S1131C20DBB2022B51D1434B1B681B687A68083224
S1131C305201D35C9B079B0FDBB2012B45D1414A78
S1131C407B685B01D31808339B78DB07DB0FDBB2BF
S1131C50002B3AD001227B689A401300DB431A0020
S1131C60364B1B681A40354B1A60364A7B685B0159
S1131C70D3180A3300221A702E4B1B681A687B682B
S1131C8008335B01D318073304221A70294B1A68EE
S1131C90AE217B68D3185B181B781A00022313400B
S1131CA065D07B68DAB2264B1A70254B10225A7025
S1131CB0204B1A687B681B01D31828331A681D4B04
S1131CC01B681F491800904751E01A4B1B681B689A
S1131CD07A6808325201D35C9B065B0FDBB2032B9C
S1131CE034D1144B1B681B687A6808325201D35CE8
S1131CF09B079B0FDBB2012B28D1124A7B685B0147
S1131D00D3180A3300221A700A4B1B681A687B68BE
S1131D1008335B01D318073304221A70054B1B6880
S1131D201A687B6808335B01D318053310221A70D4
S1131D301DE0C046A800002029C30000C000002008
S1131D40AC000020A00D0020FF3F00F0834A7B6818
S1131D505B01D3180A3300221A70814B1B681A687E
S1131D607B6808335B01D318073304221A703B687D
S1131D70082213403CD001227B689A401300DB43C5
S1131D801A00784B1B681A40764B1A60744B1B6818
S1131D901A687B6808335B01D318073308221A706A
S1131DA06F4B1A68AE217B68D3185B181B781A0036
S1131DB0022313401CD07B68DAB26B4B1A70674A5B
S1131DC07B685B01D3180E331B889BB2DBB21F22E6
S1131DD01340DAB2644B5A70614B1A687B681B017A
S1131DE0D31828331A685E4B1B685F491800904764
S1131DF03B68102213403AD001227B689A401300BA
S1131E00DB431A00574B1B681A40564B1A60544B5D
S1131E101B681A687B6808335B01D31807331022E8
S1131E201A704F4B1A68AE217B68D3185B181B7865
S1131E301A00042313401AD07B68DAB24A4B1A7092
S1131E40464A7B685B01D3185B681B019B0C9BB201
S1131E501A00454B5A80424B1A687B681B01D31801
S1131E602C331A683E4B1B680021180090473B68CE
S1131E702022134000D146E101227B689A401300DE
S1131E80DB431A00374B1B681A40364B1A60344B3D
S1131E901B681A687B6808335B01D3180733202258
S1131EA01A702F4B1A68AE217B68D3185B181B7805
S1131EB01A000823134000D125E17B68DAB22A4BCB
S1131EC01A70274B1A687B681B01D31830331A68C1
S1131ED0234B1B6824491800904714E1204B1B68CE
S1131EE01B689B8B9BB23B603B680422134053D01E
S1131EF01B4B1B681B6804229A8301237B6039E017
S1131F0001227B689A4013001A00164B1B68134089
S1131F1022D0134B1B681B687A6808325201D35CC9
S1131F209B065B0FDBB2032B20D10D4B1B681B6898
S1131F307A6808325201D35C9B079B0FDBB2012BFA
S1131F4014D1074B1B681A687B6808335B01D318EC
S1131F50043310221A700AE0C04608E0A00D0020E5
S1131F60A8000020C0000020AC000020C0467B6810
S1131F7001337B607B68072BC2D9654B1B68A522A4
S1131F809B5C1A000123134006D0614B1B685A68FE
S1131F905F4B1B68180090473B680822134016D01B
S1131FA05C4B00221A605A4B1B681B6808229A83F8
S1131FB0574B1B68A5229B5C1A000223134006D0D2
S1131FC0534B1B689A68524B1B68180090473B6838
S1131FD04022134013D04E4B1B681B6840229A8347
S1131FE04B4B1B68A5229B5C1A001023134006D0A0
S1131FF0474B1B685A69464B1B68180090473B685F
S11320002022134013D0424B1B681B6820229A8362
S11320103F4B1B68A5229B5C1A000823134006D083
S11320203B4B1B681A693A4B1B68180090473B6886
S11320301022134013D0364B1B681B6810229A835E
S1132040334B1B68A5229B5C1A000423134006D063
S11320502F4B1B68DA682E4B1B68180090473B68AF
S11320608022134016D02B4B00221A60284B1B6889
S11320701B6880229A83264B1B68A5229B5C1A004E
S11320802023134006D0224B1B689A69204B1B68FF
S1132090180090473A6880235B00134017D01D4B0B
S11320A000221A601A4B1B681B68802252009A8314
S11320B0174B1B68A5229B5C1A004023134006D0D3
S11320C0134B1B68DA69124B1B68180090473A6877
S11320D080239B00134016D00E4B00221A600C4B39
S11320E01B681B68802292009A83094B1B68A522F7
S11320F09B5C5BB2002B06DA054B1B681A6A044B27
S11321001B6818009047C046BD4602B080BDC0465B
S1132110A8000020C000002080B584B000AFBD4BF3
S11321201B681A680823FB18128C1A800823FB18F2
S11321301B88002B55D1B74B1B681A68BB1D928BAB
S11321401A80B44B1A68AB235B00D35ABA1D1288A9
S113215013409AB2AF4B1968AA235B00C95A3B1DBE
S11321600A401A800023FB6037E0AB4BFA68520048
S1132170D35ABA1D128813409BB2002B07D0A54B2B
S11321801B681B68A44AF96849008A5A9A83A24BBF
S1132190FA685200D35A3A1D128813409BB2002B9E
S11321A018D0FB68062B0AD19C4B1B895B045B0D82
S11321B09BB21A0080235B001A40994B1A60954B1E
S11321C01B68FA682E329200D258924B1B689449CD
S11321D018009047FB680133FB60FB68062BC4DDE5
S11321E050E20B23FB1800221A703BE20823FB1871
S11321F01A880B23FB181B781A4113000122134081
S113220000D128E2834B1B681A680B23FB181B7848
S113221008335B01D31807331B78DAB2BB1D1A806D
S11322207C4B19680B23FB181A78B0235B008A18BF
S1132230D3181B789BB2BA1D128813409BB21AB2F2
S1132240744B18680B23FB181978AC235B004118F6
S1132250CB181B781BB213401AB23B1D1A80BB1D4E
S11322601B88602213405CD06A4B1B681A680B23DE
S1132270FB181B7808335B01D31807331B78DBB2D8
S11322801A004023134015D0624B1B681A680B23B5
S1132290FB181B7808335B01D318073340221A70EC
S11322A00B23FB181B78802252421343DAB25D4B96
S11322B09A7120E0574B1B681A680B23FB181B7894
S11322C008335B01D31807331B78DBB21A002023D1
S11322D0134010D04F4B1B681A680B23FB181B7854
S11322E008335B01D318073320221A704D4B0B229D
S11322F0BA1812789A713B1D1B886022134000D1D2
S1132300B7E1444B1A680B23FB181B78E0211B012F
S1132310D3185B181A683F4B1B6842491800904752
S1132320A7E1BB1D1B881022134038D0394B1B6812
S11323301A680B23FB181B7808335B01D318073387
S113234010221A70334B19680B23FB181A78B02328
S11323505B008A18D3181B7810221340DBB2002BC1
S113236000D188E10B23FB181B782C4A5B01D3189E
S11323705B689B049B0C9BB21A002A4B1A80254B6A
S11323801A680B23FB181B78DC211B01D3185B187C
S11323901A68204B1B682349180090476BE1BB1D4A
S11323A01B880322134000D18FE01A4B1B681A6864
S11323B00B23FB181B7808335B01D31807331B78F6
S11323C0DBB21A00022313402ED0124B1B681A688A
S11323D00B23FB181B7808335B01D3180733022245
S11323E01A700B23FB181B78802252421343DAB273
S11323F00C4B9A710B23FB181B78084A5B01D3180A
S113240010335B689B049B0C9BB21A00054B5A80EB
S113241045E0C046A80000201CFA0000A00D0020E2
S1132420B4000020B8000020984B1B681A680B23E6
S1132430FB181B7808335B01D31807331B78DBB216
S11324401A00012313402AD0904B1B681A680B23EF
S1132450FB181B7808335B01D318073301221A7069
S11324608B4B0B22BA1812789A710B23FB181B782A
S1132470884A5B01D3185B689B049B0C9BB21A00CF
S1132480834B1A800B23FB181B78824A5B01D318F9
S11324905B681B019B0C9BB21A007D4B9A803B1D11
S11324A01B880322134000D1E7E0784B1A680B2302
S11324B0FB181B780D331B01D31804331A68734BB4
S11324C01B68734918009047D7E0BB1D1B880C227A
S11324D0134000D1BFE06D4B1B681A680B23FB1837
S11324E01B7808335B01D31807331B78DBB21A005F
S11324F00823134047D0654B1B681A680B23FB184D
S11325001B7808335B01D318073308221A700B2396
S1132510FB181B785F4A5B01D3181A331B78DBB2B4
S11325201A000223134014D00B23FB181B780B2230
S1132530BA181278574952018A181A321278D2B24C
S113254002218A43D1B2534A5B01D3181A330A1CBD
S11325501A700B23FB181B78802252421343DAB201
S11325604B4B9A71494B1B681A680B23FB181B7859
S113257008335B01D31807331B78DBB21A0002233C
S1132580134053D07EE0414B1B681A680B23FB18A1
S11325901B7808335B01D31807331B78DBB21A00AE
S11325A00423134042D0394B1B681A680B23FB18D1
S11325B01B7808335B01D318073304221A700B23EA
S11325C0FB181B78334A5B01D3180A331B78DBB240
S11325D01A000223134014D00B23FB181B780B2280
S11325E0BA1812782B4952018A180A321278D2B2D8
S11325F002218A43D1B2274A5B01D3180A330A1C49
S11326001A70234B0B22BA1812789A711F4B1B684D
S11326101A680B23FB181B7808335B01D3180733A4
S11326201B78DBB21A000123134028D13B1D1B8801
S11326300C22134025D0154B1A680B23FB181B786A
S1132640D8211B01D3185B181A68104B1B6810495A
S11326501800904715E00B23FB181A780B23FB187E
S113266001321A700B23FB181B78072B00D8BDE529
S113267008E0C04606E0C04604E0C04602E0C046AA
S113268000E0C046BD4604B080BDC046A80000209E
S1132690B8000020A00D002080B500AF084B1B68D7
S11326A01B681B781B06DB0FDBB2002B02D0054B2B
S11326B0984701E0044B9847C046BD4680BDC046DC
S11326C0A80000209D1A00001921000080B586B0E2
S11326D000AFF860B9607A6000237B61FB68002B6F
S11326E012D001235B4213E00B4B1A680B4B1B689F
S11326F0B96818009047BB680133BB607B6901333C
S11327007B617B68013B7B607B68002BECDC7B6935
S11327101800BD4606B080BDA00E0020A80E002003
S113272080B586B000AFF860B9607A6000237B6141
S1132730FB68012B1DD0FB68022B1AD0FB68032B0E
S113274017D001235B4218E00E4B1A680E4B186831
S1132750BB68591CB9601B7819009047031E02DA44
S113276001235B4209E07B6901337B617B68013BA8
S11327707B607B68002BE7D17B691800BD4606B0FF
S113278080BDC046A40E0020A80E002080B584B0F1
S113279000AF78607B681B68FB60FB685B7EDBB224
S11327A05BB2002B01DA012300E000231800BD46D0
S11327B004B080BD80B586B000AF78607B681B68CC
S11327C03B613B691B7EDBB2FB6000237B61FB68E2
S11327D00122134003D07B69012213437B61FB6810
S11327E00422134003D07B69022213437B61FB68FC
S11327F00222134003D07B69042213437B617B696B
S11328001800BD4606B080BD80B584B000AF7860C6
S113281039607B681B68BB600023FB603B68012256
S1132820134003D0FB6801221343FB603B68022280
S1132830134003D0FB6804221343FB603B6804226B
S1132840134003D0FB6802221343FB60FB68DAB237
S1132850BB681A76C046BD4604B080BD80B584B05E
S113286000AF78607B681B68FB60C0467B6818001B
S11328700E4B9847031EF9D1FB680F229A75FB682B
S11328800F221A76FB681B78DBB202221343DAB2FA
S1132890FB681A70C0467B681800044B9847031EF7
S11328A0F9D100231800BD4604B080BD8D27000077
S11328B080B584B000AF78607B681B68FB60C0465D
S11328C07B6818000B4B9847031EF9D1FB681B7BF0
S11328D0DBB202221343DAB2FB681A73C0467B6888
S11328E01800044B9847031EF9D1C046BD4604B0F6
S11328F080BDC0468D27000080B584B000AF7860ED
S113290039607B681800184B984702000123134074
S113291001D1052323E07B681B68FB60C0467B680C
S11329201800124B9847031EF9D1FB685B8B9AB2CF
S11329303B681A807B68012118000D4B98477B681F
S11329401800094B984702000423134006D07B6803
S113295004211800064B98471E2300E000231800AA
S1132960BD4604B080BDC046B52700008D270000D9
S11329700928000080B58CB000AF3B001800104B54
S113298098473B0001221A703B0002225A703B0018
S113299006221A733B00C0225201DA813B00002256
S11329A01A713A000749084B1800084B9847064B20
S11329B01800074B9847C046BD460CB080BDC046C2
S11329C01902000000400042AC0E0020690800001B
S11329D05D28000090B583B000AF154B1800154B6F
S11329E098473A1D124B11001800134B9847031EC9
S11329F0052BF6D03B1D1A88104B10009847021C7B
S1132A000F4B1049101C9847031C1A1C0E4B0F49FE
S1132A10101C9847031C1A1CBC1D0D4B101C984716
S1132A2003002380BB1D1B881800BD4603B090BD66
S1132A30AC0E0020B1280000F9280000E9CF000006
S1132A4071CA000000404E45DDC6000000F07F451D
S1132A50C1C3000080B500AF0122FE214020044B19
S1132A6098470F20034B9847C046BD4680BDC046DB
S1132A701D2E0000DDAD000090B583B000AF0F4BFC
S1132A8098470122E72140200D4B98470A200D4B1F
S1132A909847FC1D0C4B0122190040200B4B984712
S1132AA003002370084B1B78022B01D1012300E0A3
S1132AB000231800BD4603B090BDC046552A00004F
S1132AC01D2E0000DDAD0000C4000020992E000082
S1132AD090B585B000AF0122E32140202A4B9847EE
S1132AE032202A4B98470F23FC18294B0322190044
S1132AF04020284B9847030023700F23FB181B78B2
S1132B00002B01D100233BE0214B1A780C23FB1846
S1132B101A800C23FB180C22BA18128812021A808D
S1132B201B4B5B781BB2FC2213401AB20C23FB181C
S1132B3000215B5E13431AB20C23FB181A800B238B
S1132B40FB18134A92781A700C23FB181A88124B3C
S1132B5010009847031C7B60104B11497868984714
S1132B60031C7B600F4B8F21C90578689847031CB1
S1132B707B600D4B0D4978689847031C7B607B682C
S1132B80181CBD4605B090BD1D2E0000DDAD000033
S1132B90C4000020992E0000E9CF000071CA000093
S1132BA052B82F43DDC6000099CC000066663B4254
S1132BB090B585B000AF0122E52140202A4B98470B
S1132BC032202A4B98470F23FC18294B0322190063
S1132BD04020284B9847030023700F23FB181B78D1
S1132BE0002B01D100233BE0214B1A780C23FB1866
S1132BF01A800C23FB180C22BA18128812021A80AD
S1132C001B4B5B781BB2FC2213401AB20C23FB183B
S1132C1000215B5E13431AB20C23FB181A800B23AA
S1132C20FB18134A92781A700C23FB181A88124B5B
S1132C3010009847031C7B60104B11497868984733
S1132C40031C7B600F4B8F21C90578689847031CD0
S1132C507B600D4B0D4978689847031C7B607B684B
S1132C60181CBD4605B090BD1D2E0000DDAD000052
S1132C70C4000020992E0000E9CF000071CA0000B2
S1132C800000FA42DDC6000099CC00000000C040FC
S1132C9080B584B000AF78607B681B68FB60FB681C
S1132CA0DB69072213405A1E9341DBB21800BD466C
S1132CB004B080BD80B582B000AF7860C0467B6848
S1132CC01800044B9847031EF9D1C046BD4602B014
S1132CD080BDC046912C000080B582B000AF786002
S1132CE07B6864221A607B681B4A5A607B680022F6
S1132CF09A607B6800221A737B6800221A767B68CC
S1132D00802292031A617B6801225242DA827B6834
S1132D10012252429A827B680022DA617B68002297
S1132D201A627B682422002199547B6800229A62EB
S1132D307B682C22002199547B682D220021995410
S1132D407B682E22002199547B68D7221A86C046BC
S1132D50BD4602B080BDC046480D000080B584B0B9
S1132D6000AF78607B681B68BB600023FB607B68F6
S1132D701800104B9847BB681B6802221A43BB68B3
S1132D801A600CE0FB680133FB607B68DB881A1E69
S1132D90FB689A4203D8BB6810225A8306E0BB68DA
S1132DA05B8B9BB21A0010231340EBD0BD4604B0DA
S1132DB080BDC046B52C000080B500AF0E4B180096
S1132DC00E4B98470C4B0E4ADA820B4B01221A73B6
S1132DD0094B0C4ADA61084B0B4A1A62064A0B4942
S1132DE00B4B18000B4B9847094B18000A4B98479C
S1132DF0C046BD4680BDC046C00E0020D92C000090
S1132E001027000002000800020009000008004228
S1132E10B40E00206D1400005D2D000090B585B047
S1132E2000AF040008001100FB1D221C1A70BB1D1A
S1132E30021C1A707B1D0A1C1A700E23FB18002238
S1132E401A80124B5B68BA1D12781A700F4B01225C
S1132E505A80FB1D1B789AB20C4B1A8008E00E2393
S1132E60FB181B880E22BA18591C1180642B09D038
S1132E70064A074B11001800064B9847031EEED173
S1132E80C04600E0C046BD4605B090BD0800002025
S1132E90B40E00206D1A000080B584B000AF396014
S1132EA01100FB1D021C1A70BB1D0A1C1A700E2394
S1132EB0FB1800221A800D23FB1801221A70BB1D77
S1132EC01B789AB2174B5A80FB1D1B789AB2154B8C
S1132ED01A80144B3A685A6011E00E23FB181B88C1
S1132EE00E22BA18591C1180642B08D10E4B1800FD
S1132EF00E4B98470D23FB1800221A7007E0094A6D
S1132F000B4B110018000B4B9847031EE5D1054BE2
S1132F105B683B600D23FB181B781800BD4604B0AA
S1132F2080BDC046080000202CFA0000D1E9000052
S1132F30B40E0020C518000080B584B000AF7860DE
S1132F407B68A02212011A807B6801229A707B6838
S1132F500022DA707B6800221A710F23FB1800220A
S1132F601A700EE00F23FB181A787B680232920065
S1132F700021D1500F23FB181A780F23FB180132BC
S1132F801A700F23FB181B78012BEBD9C046BD46E2
S1132F9004B080BD80B584B000AF0200FB1D1A7080
S1132FA01A4B9B69FB60FA68F0231B011340FB601A
S1132FB0FB681B0AFB60FB68022B05D8144A5368A4
S1132FC0C02189000B435360FB1D1B78002B16DBCB
S1132FD0022B02DD032B0BD011E00E4B0D4A1269BC
S1132FE004218A431A610C4AFB1D1B78537008E0C4
S1132FF0084B084A126904210A431A6101E01723A5
S113300000E000231800BD4604B080BD002000414C
S11330100040004100ED00E00004004080B500AF36
S1133020BFF34F8F30BFC046BD4680BD80B584B06E
S113303000AF3B0018000B4B98473B0000221A805E
S11330403B0000229A703B0001221A713A000649A3
S1133050064B1800064B9847064B9847C046BD469A
S113306004B080BD392F000000140040F40E00208D
S1133070050C0000D130000080B582B000AF78604C
S11330807B68FA22920053437B607B689AB20A4BB6
S113309011001800094B9847094B9847064B180034
S11330A0084B98470320084B9847084B9847C0465D
S11330B0BD4602B080BDC046F40E0020210D0000C4
S11330C0D1300000DD090000952F00001D30000004
S11330D080B500AF0649074B02221800064B9847FB
S11330E0044B02211800054B9847C046BD4680BDDD
S11330F001310000F40E0020650D0000110E0000E7
S113310080B500AF034B1800034B9847C046BD463B
S113311080BDC046F40E0020210A000080B582B0B4
S113312000AF78607B6800221A70C046BD4602B0CA
S113313080BDC04680B582B000AF02003960FB1D7F
S11331401A70FB1D1B78012B0AD0022B0FD0002B09
S113315014D10E4B0D4A91693A680A439A610FE003
S11331600A4B0A4AD1693A680A43DA6108E0074B14
S1133170064A116A3A680A431A6201E0172300E01A
S113318000231800BD4602B080BDC04600040040C4
S113319080B582B000AF78607B6880221A707B684B
S11331A000225A707B6801229A707B680022DA70D0
S11331B0C046BD4602B080BD80B582B000AF0200FB
S11331C0FB1D1A70064BFA1D127811001F220A40CB
S11331D0012191400A001A60C046BD4602B080BD7C
S11331E000E100E080B584B000AF0200FB1D1A705E
S11331F00F23FB18FA1D127852091A700F23FB18BB
S11332001B78002B0CD1094BBB600F23FB181B78D8
S11332109B0010229446BC446344083B1B6800E0B6
S113322000231800BD4604B080BDC046001800400D
S113323080B582B000AF0F4B3B6000237B6011E090
S11332407B689B0008229446BC446344083B1B688B
S11332505B78DBB25BB2002B01DA012306E07B680A
S113326001337B607B68002BEAD000231800BD4645
S113327002B080BD0018004080B584B000AF2D4B73
S11332807B60402100202C4B98473B0018002B4BBF
S113329098473B0000221A703B0019000520284B78
S11332A098470520274B98470023FB6018E0FB68EC
S11332B09B0010229446BC4463440C3B1A68FB6890
S11332C09B0010218C46BC4463440C3B1B681B7858
S11332D0DBB201210B43DBB21370FB680133FB60EB
S11332E0FB68002BE3D0C046174B9847031EFBD165
S11332F00B23FB1800221A700DE00B23FB181A781D
S1133300124B92000021D1500B23FB181A780B2387
S1133310FB1801321A700B23FB181B780F2BECD906
S113332004200B4B98470B4B9847C046BD4604B04E
S113333080BDC04600180040353100001D3100003A
S113334031BB000075BB0000313200000C0F0020BF
S1133350B93100005933000080B582B000AF154B7D
S11333603B6000237B6018E07B689B000822944646
S1133370BC446344083B1A687B689B0008218C4664
S1133380BC446344083B1B681B78DBB202210B433B
S1133390DBB213707B6801337B607B68002BE3D066
S11333A0C046054B9847031EFBD1C046BD4602B03C
S11333B080BDC046001800403132000080B582B0A4
S11333C000AF78607B6800221A607B6800225A6034
S11333D07B6801221A727B6801225A727B68002280
S11333E09A727B680222DA72C046BD4602B080BD82
S11333F080B586B000AF02003960FB1D1A70082347
S1133400FB181800364B98473B685B68DAB2082310
S1133410FB181A700823FB1800225A703B681A7AAA
S11334200823FB189A703B681B68DBB20822BA18A1
S1133430110018002B4B9847FB1D1B7818002A4BD2
S1133440984703003B61FB1D1B78072213409B0038
S1133450FB603B68DB7A7B613B689B7A002B03D083
S11334607B69082213437B61FB1D1B78DB08DBB2FD
S11334701800FB1D1B78DB08DBB21A003B6906321F
S11334809200D3580F21FA6891400A00D2431A409F
S11334907969FB6899400B001A4311003B69821D4E
S11334A09200D1503B685B7A002B0AD03B695A6981
S11334B0FB1D1B78012199400B001A433B695A619B
S11334C00AE03B695B69FA1D1278012191400A0008
S11334D0D2431A403B695A61C046BD4606B080BD1E
S11334E0913100001DBE0000E531000080B582B0BE
S11334F000AF78607B6800221A70C046BD4602B0F7
S113350080BDC04680B586B000AFF860B9607A600F
S11335101623FB1800221A80BB683B61BB685A085B
S1133520FB689A4201D2402326E0BB685B083B61FA
S11335300AE03A69FB68D31A3B611623FB181A8820
S11335401623FB1801321A803A69FB689A42F0D2BA
S11335501623FB181622BA181288013A1A80162369
S1133560FB181B88FF2B01D9402305E07B6816223A
S1133570BA1812881A8000231800BD4606B080BD10
S113358080B584B000AF0200FB1D1A70BB1D0A1C7D
S11335901A701A4B1B7801225340DBB2002B03D163
S11335A0BB1D1B78002B1BD00C23FB181800144BDD
S11335B098470C23FB18FA1D12781A700C23FB1879
S11335C0190013200F4B984713200F4B98470B4BB0
S11335D0FA1D12785A70094B01221A70002308E070
S11335E0064B5B78FA1D12789A4201D1002300E061
S11335F01D231800BD4604B080BDC046D000002085
S1133600ED34000031BB000075BB000080B582B012
S113361000AF78600A00FB1C1A707B684D4A934225
S11336203FD04C4A934206D84B4A93420FD04B4A60
S1133630934221D089E04A4A934200D15BE0494A4F
S1133640934200D16CE0484A93423FD07DE0FB1C9A
S11336501B78012B0AD002DC002B05D075E0022B6D
S113366006D0032B06D070E0404B6FE0404B6DE07A
S1133670404B6BE0404B69E0FB1C1B78012B0AD0EC
S113368002DC002B05D060E0022B06D0032B06D011
S11336905BE03A4B5AE03A4B58E03A4B56E03A4B2F
S11336A054E0FB1C1B78012B0AD002DC002B05D054
S11336B04BE0022B06D0032B06D046E0334B45E00B
S11336C0334B43E0334B41E0334B3FE0FB1C1B786F
S11336D0012B0AD002DC002B05D036E0022B06D0E9
S11336E0032B06D031E02D4B30E02D4B2EE02D4B3B
S11336F02CE02D4B2AE0FB1C1B78012B0AD002DCAA
S1133700002B05D021E0022B06D0032B06D01CE0B1
S1133710264B1BE0264B19E0264B17E0264B15E001
S1133720FB1C1B78012B0AD002DC002B05D00CE01B
S1133730022B06D0032B06D007E0204B06E0204BDB
S113374004E0204B02E0204B00E000231800BD46BB
S113375002B080BD0010004200080042000C00428C
S113376000180042001C004200140042020008003D
S11337700200090003000600030007000200100015
S113378002001100020012000200130003000800EE
S11337900300090002000E0002000F0005001B00D8
S11337A005001C0002001800020019000500530067
S11337B005003F0005003E000500520003003E00E6
S11337C003003F00030018000300190090B58BB0FC
S11337D000AF78600C23FB180F4A13CA13C313CA33
S11337E013C300237B620EE00C23FB187A6A920059
S11337F0D3581A1E7B689A4202D17B6ADBB206E078
S11338007B6A01337B627B6A052BEDD900231800A8
S1133810BD460BB090BDC0463CFA000080B582B0F6
S113382000AF78607B6800221A70C046BD4602B0C3
S113383080BDC04680B582B000AF02003960FB1D78
S11338401A70FB1D1B78012B0AD0022B0FD0002B02
S113385014D10E4B0D4A91693A680A439A610FE0FC
S11338600A4B0A4AD1693A680A43DA6108E0074B0D
S1133870064A116A3A680A431A6201E0172300E013
S113388000231800BD4602B080BDC04600040040BD
S113389080B582B000AF78607B6880221A707B6844
S11338A000225A707B6801229A707B680022DA70C9
S11338B0C046BD4602B080BD80B584B000AF78601C
S11338C07B681B68FB60FB68DB7BDBB21A00802330
S11338D013405A1E9341DBB21800BD4604B080BDAC
S11338E090B587B000AF78600823FB180D4A13CA5F
S11338F013C300237B610DE00823FB187A6992004F
S1133900D2587B689A4202D17B69DBB206E07B69BC
S113391001337B617B69022BEED900231800BD467D
S113392007B090BD54FA000090B58DB000AFF860B8
S1133930B9607A602E23FB1800221A802D23FB180D
S113394000221A702C23FB1800221A702923FC1859
S1133950BB681800BF4B9847030023702423FA1850
S1133960BD4B1000190003231A00BC4B98471C23BD
S1133970FA18BB4B1000190006231A00B74B9847DE
S11339802B23FB1800221A700EE02B23FB181A7845
S1133990FB68023292000021D1502B23FB181A78C5
S11339A02B23FB1801321A702B23FB181B78032BD3
S11339B0EBD9FB6800221A76FB6800225A76292389
S11339C0FB181A78A74B9200F968D150FB68BA68C3
S11339D01A607B689B78082B08D12923FB181B7875
S11339E003330122134001D01723C4E17B689A7882
S11339F0FB681A71BB681B889BB21A000123134031
S1133A0001D00523B7E1BB68DB7BDBB21A001023CE
S1133A10134001D01C23AEE1BB681B889BB21A0083
S1133A200223134001D01C23A5E17B681B7C002BDF
S1133A3017D01823FB1818008B4B98477B689B6999
S1133A40DAB21823FB181A701823FB1801225A70D3
S1133A507B685B69DBB21822BA1811001800834B2B
S1133A6098477B681B7F002B17D01823FB1818007E
S1133A707D4B98477B685B6ADAB21823FB181A708F
S1133A801823FB1801225A707B681B6ADBB21822C8
S1133A90BA1811001800754B98472923FB181A7897
S1133AA01C23FB185200D35A19000220704B98476C
S1133AB07B689B78082B0BD12923FB181B785A1C95
S1133AC01C23FB185200D35A19000220684B984754
S1133AD01423FB181800674B98477B681A78142343
S1133AE0FB181A702923FB181B782422BA18D35CFC
S1133AF01422BA18110018005F4B98472923FB18A9
S1133B001B782422BA18D35C18005C4B98477B6856
S1133B109A787B689B791343DBB29AB27B681B89E2
S1133B20134399B27B689A882E23FB180A431A80A0
S1133B307B685B78002B08D02E23FB182E22BA1842
S1133B401288802109010A431A80C046FB681800C4
S1133B504B4B9847031EF9D1BB682E22BA18128822
S1133B601A807B685B7B002B03D02D23FB18042277
S1133B701A707B689B7B002B07D02D23FB182D220A
S1133B80BA18127801210A431A70C046FB6818005B
S1133B903B4B9847031EF9D1BB68FF221A712D23B2
S1133BA0FB181B78002B0BD0C046FB681800344B65
S1133BB09847031EF9D1BB682D22BA1812785A719E
S1133BC02C23FB187A68927A1A702A23FB18002295
S1133BD01A701CE02A23FB181B787A68D318DB7A46
S1133BE0002B0DD02A23FB181B7810229A401300B7
S1133BF0D9B22C23FB182C22BA1812780A431A7053
S1133C002A23FB181A782A23FB1801321A702A2354
S1133C10FB181B78012BDDD9C046FB681800184B34
S1133C209847031EF9D1BB682C22BA1812789A71EE
S1133C30C046FB681800124B9847031EF9D1FB6875
S1133C401B79042B1ED0082B00D170E0002B4BD025
S1133C5090E0C046E138000060FA0000ADE90000E1
S1133C6064FA000080100020913800001DBE00009E
S1133C70353800001D38000031BB000075BB000062
S1133C80B9380000C046FB6818003D4B9847031E36
S1133C90F9D17B6828229A5CBB681A74C046FB6819
S1133CA01800374B9847031EF9D17B6829229A5C88
S1133CB0BB681A75C046FB681800314B9847031E51
S1133CC0F9D17B682A229A5CBB681A76C046FB68E5
S1133CD018002B4B9847031EF9D17B682B229A5C62
S1133CE0BB685A76002346E0C046FB681800244BA4
S1133CF09847031EF9D17B681A8DBB681A82C046A7
S1133D00FB6818001E4B9847031EF9D17B685A8D37
S1133D10BB681A83C046FB681800194B9847031EFA
S1133D20F9D17B689A8DBB685A83002323E0C0468F
S1133D30FB681800124B9847031EF9D17B689A6AF6
S1133D40BB681A61C046FB6818000D4B9847031EF8
S1133D50F9D17B68DA6ABB689A61C046FB681800CF
S1133D60074B9847031EF9D17B681A6BBB68DA616D
S1133D70002300E017231800BD460DB090BDC046D7
S1133D80B938000080B584B000AF78607B681B68E8
S1133D90FB60C0467B6818000E4B9847031EF9D1A0
S1133DA07B681B79042B04D0082B0AD0002B04D089
S1133DB00AE0FB681B7CDBB207E0FB681B8A9BB252
S1133DC003E0FB681B6900E000231800BD4604B053
S1133DD080BDC046B938000080B586B000AFF86039
S1133DE07A600B23FB180A1C1A70FB681B687B6142
S1133DF0C046FB681800204B9847031EF9D1FB68A6
S1133E001B79042B04D0082B22D0002B10D02EE0D9
S1133E100B23FB181B78012B0AD80B23FB181B78E8
S1133E207A68D1B27A69D3180A1C1A7600231FE083
S1133E300B23FB181B78012B0AD80B23FB181A78C9
S1133E407B6899B27B690C325200D15200230FE097
S1133E500B23FB181B78012B09D80B23FB181A78AA
S1133E607B69063292007968D150002300E0172361
S1133E701800BD4606B080BDB938000080B584B0D6
S1133E8000AF0200FB1D1A700F23FB18FA1D1278F5
S1133E90D2091A700E23FB18FA1D127852091A70EF
S1133EA00D4BBB600F23FB181B78002B0FD10F2386
S1133EB0FB181B789B0010229446BC446344083BC7
S1133EC01A680E23FB181B78DB01D31800E00023CB
S1133ED01800BD4604B080BD0044004180B582B0E6
S1133EE000AF0200FB1D1A70FB1D1B781800034B6A
S1133EF0984703001800BD4602B080BD7D3E000017
S1133F0080B584B000AF0200FB1D1A70BB1D0A1CF3
S1133F101A70FB1D1B7818000D4B98470300FB60BB
S1133F20FB1D1B781F22134001229A401300BB6023
S1133F30BB1D1B78002B03D0FB68BA689A6102E0B2
S1133F40FB68BA685A61C046BD4604B080BDC0462D
S1133F50DD3E000080B584B000AF0200FB1D1A7086
S1133F60FB1D1B781800094B98470300FB60FB1DE1
S1133F701B781F22134001229A401300BB60FB6888
S1133F80BA68DA61C046BD4604B080BDDD3E0000BB
S1133F9080B582B000AF274B00221A73254B264A06
S1133FA01A61264B01221A73244B254A1A61254BA8
S1133FB000221A60244B00225A81234B02221A73D6
S1133FC0214B02225A73204B02229A731E4B1F4A22
S1133FD09A61FB1D00221A701FE0FB1D19781C4A10
S1133FE00B00DB005B18995C0120404201439954AB
S1133FF0D3185A78012149420A435A70FB1D1A7892
S113400013491300DB009B18CB18033300221A70EA
S1134010FB1D1A78FB1D01321A70FB1D1B78042B43
S1134020DBD90C4B190002200B4B9847C046BD4608
S113403002B080BDD400002049420000E800002006
S11340407D4200002C01002030010020A940000026
S1134050FC00002055410000E96E000080B582B0EC
S113406000AF78600D4B7A681A607B681A785B78C9
S11340701B0213439AB20A4B5A817B681A1D084BE0
S11340801A617B689A78064B1A75054B1800054B24
S11340909847C046BD4602B080BDC0462C010020F2
S11340A030010020D56F000080B582B000AF786089
S11340B00C4B1B681A78012149420A431A705A783A
S11340C0012149420A435A70064B1B680022DA70E8
S11340D0044B00221A60044B9847C046BD4602B008
S11340E080BDC0462C010020ED40000080B582B0A8
S11340F000AF154B1B68002B22D1FB1D00221A7048
S113410019E0FB1D1A7811491300DB009B18CB182A
S113411003331B78002B09D0FB1D1A781300DB0036
S11341209B180A4A9B181800094B9847FB1D1A78DC
S1134130FB1D01321A70FB1D1B78042BE1D900E032
S1134140C046BD4602B080BD2C010020FC0000200A
S11341505D40000080B582B000AF78607B689A68EB
S11341607B681B7B19001000034B98470300180061
S1134170BD4602B080BDC0467D41000080B584B01C
S113418000AF78600A00FB1C1A707B68FB60FB1CA4
S11341901B78002B01D1002342E0FB681B78102B15
S11341A03DD17B68BB60FB1C1B78052B01D0002331
S11341B036E01D4B18001D4B98471D4B18001B4B38
S11341C09847BB685A789B781B0213439BB21A002A
S11341D0154B9A60144B00221A73134B154A1A613B
S11341E0114B1800144B9847BB68DA781B791B02F3
S11341F013439BB21A000E4B9A600D4B01221A73A3
S11342000B4B0E4A1A610A4B18000B4B98470021BE
S113421013200B4B98470B4B9847012300E00023D6
S11342201800BD4604B080BDD4000020A565000080
S1134230E8000020494200006D6500007D42000056
S1134240013F00002D6F000080B582B000AF7860A0
S1134250064B984701211320054B9847054B18003E
S1134260054B9847C046BD4602B080BD4D6F000067
S1134270013F0000E8000020A565000080B582B081
S113428000AF78601320034B9847C046BD4602B088
S113429080BDC046553F000080B584B000AF020029
S11342A0FB1D1A700F23FB18FA1D1278D2091A701D
S11342B00E23FB18FA1D127852091A700D4BBB60BD
S11342C00F23FB181B78002B0FD10F23FB181B782F
S11342D09B0010229446BC446344083B1A680E2396
S11342E0FB181B78DB01D31800E000231800BD463F
S11342F004B080BD0044004180B582B000AF02002C
S1134300FB1D1A70FB1D1B781800034B9847030014
S11343101800BD4602B080BD9942000080B584B04B
S113432000AF0200FB1D1A70BB1D0A1C1A70FB1D96
S11343301B7818000D4B98470300FB60FB1D1B788E
S11343401F22134001229A401300BB60BB1D1B783F
S1134350002B03D0FB68BA689A6102E0FB68BA6874
S11343605A61C046BD4604B080BDC046F942000053
S113437080B584B000AF0200FB1D1A70FB1D1B78D2
S11343801800094B98470300FB60FB1D1B781F2294
S1134390134001229A401300BB60FB68BA68DA61DB
S11343A0C046BD4604B080BDF942000080B584B06B
S11343B000AF78607B689B68FB601320074B9847CD
S11343C07B685A7BFB685A767B680E229A56FB6898
S11343D09A7601231800BD4604B080BD71430000E5
S11343E080B582B000AF7860074B1B78042B03D1F3
S11343F0054B01221A7003E0044B1800044B984744
S1134400C046BD4602B080BD50010020E00100203E
S11344106D65000080B582B000AF78601320034B57
S11344209847C046BD4602B080BDC04671430000F7
S113443080B582B000AF7860034B03221A70C04687
S1134440BD4602B080BDC0465001002080B582B098
S113445000AF7860012113201E4B98477B681B7FB7
S1134460002B12D11C4B1B7801225340DBB2002BD2
S11344701AD000211320174B9847184B1800184BDB
S11344809847154B01221A700EE0134B1B78002B32
S11344900AD0012113200F4B9847104B1800114BE1
S11344A098470D4B00221A707B685B7F012B0AD161
S11344B00D4B18000B4B984713200C4B98470C4B93
S11344C005221A7002E00A4B03221A70C046BD4648
S11344D002B080BD1D4300009C0100207401002037
S11344E0A56500006D65000088010020714300008F
S11344F05001002090B585B000AF002100209A4BF8
S1134500984703001A00994B1733FF2111400C0000
S1134510197800200140081C211C01431970120A5B
S113452090B25A7800210A40111C021C0A435A70A6
S11345308F4B1B78002B64D08E4B9847031CFB6079
S11345408D4B9847031CBB608C4BF868984702005E
S1134550864B2133FF2111400C00197800200140C3
S1134560081C211C01431970110AFF2001400C0092
S1134570597800200140081C211C01435970110C7A
S1134580FF2001400C00997800200140081C211CE8
S113459001439970100EDA7800210A40111C021CA4
S11345A00A43DA70754BB868984702006F4B2D3395
S11345B0FF2111400C00197800200140081C211C27
S11345C001431970110AFF2001400C0059780020A2
S11345D00140081C211C01435970110CFF200140AB
S11345E00C00997800200140081C211C014399709B
S11345F0100EDA7800210A40111C021C0A43DA70FA
S11346005DE05F4B984703001B041A0C574B2133A2
S1134610FF2111400C00197800200140081C211CC6
S113462001431970110AFF2001400C005978002041
S11346300140081C211C01435970110CFF2001404A
S11346400C00997800200140081C211C014399703A
S1134650100EDA7800210A40111C021C0A43DA7099
S1134660474B984703001B041A0C404B2D33FF2182
S113467011400C00197800200140081C211C014342
S11346801970110AFF2001400C00597800200140E4
S1134690081C211C01435970110CFF2001400C001F
S11346A0997800200140081C211C01439970100EC8
S11346B0DA7800210A40111C021C0A43DA70BC1D7E
S11346C0304B984703002380BB1D1A88274B29339E
S11346D0FF2111400C00197800200140081C211C06
S11346E001431970110AFF2001400C005978002081
S11346F00140081C211C01435970110CFF2001408A
S11347000C00997800200140081C211C0143997079
S1134710100EDA7800210A40111C021C0A43DA70D8
S1134720194B00225A81184B01221A73164B01228D
S11347305A73154B03229A73134B0C4A1A61124B8A
S11347403D221A75104B114A9A6100211320104B17
S113475098470D4B18000F4B98470F4B02221A70C5
S1134760C046BD4605B090BD31770000A0010020D1
S11347704C0F0020D12A0000B12B0000A5CF00006F
S113478061EA0000D5290000540100204D440000D6
S11347901D430000D56F00005001002080B500AF1C
S11347A07A4B01221A70794B02225A70774B0233EA
S11347B01A8800210A40111C754A0A431A805A8833
S11347C000210A405A809A8800210A409A80DA8897
S11347D000210A40DA806D4B6D4A5A816B4B6D4A59
S11347E0DA606A4B802212021A61684B6A4A9A8222
S11347F0664B0F229A75654B17331A7800210A40CD
S11348001A705A7800210A405A70604B00225A7676
S11348105E4B00229A765D4B0122DA765B4B0C22CA
S11348201A775A4B1D331A7800210A401A705A78A5
S113483000210A405A709A7800210A409A70DA7866
S113484000210A40DA70514B21331A7800210A40C2
S11348501A705A7800210A405A709A7800210A4046
S11348609A70DA7800210A40DA70484B25331A78B6
S113487000210A401A705A7800210A405A709A7826
S113488000210A409A70DA7800210A40DA703F4B1E
S11348902D331A7800210A401A705A7800210A40F0
S11348A05A709A7800210A409A70DA7800210A40F6
S11348B0DA70364B29331A7800210A401A705A7874
S11348C000210A405A709A7800210A409A70DA78D6
S11348D000210A40DA702D4B3122202199542B4BB0
S11348E032220A219954294B33222C499B180A223B
S11348F018002B4B98472B4B18002B4B9847264BF3
S113490018002A4B98470F20294B98470120294B20
S11349109847294B1800294B9847294B1900012027
S1134920284B9847284BFA22D2009A60264B002243
S11349301A73254B254A1A61254B00221A70254B00
S1134940FA2252009A60234B01221A73214B224A05
S11349501A61204B1800214B9847214BFA229200F0
S11349609A601F4B00221A731D4B1E4A1A611E4B7C
S11349709847030018001D4B98471D4B98471D4B43
S113498001221A70C046BD4680BDC046A001002069
S11349900180FFFF00010101341200006CFA0000E5
S11349A0ADE9000001800000896E0000B96E0000CE
S11349B0656900003D69000078FA00002590000058
S11349C0AD430000E96E0000E0010020E143000077
S11349D09C01002074010020154400006D65000056
S11349E08801002031440000ED6A000005EA00005F
S11349F0913F00005001002080B500AF1A4B1B7896
S1134A00082B2AD89A00194BD3181B689F46184BB9
S1134A10984725E0174B984722E0134B06221A705B
S1134A201EE0154B984703001A0001235340DBB2E4
S1134A30002B14D0114B98470B4B07221A700EE031
S1134A4002200F4B9847084B08221A7008E00D4BC0
S1134A509847054B01221A7002E0C04600E0C046A8
S1134A60C046BD4680BDC046500100208CFA0000FF
S1134A709D470000F5440000116F00006D6F0000B9
S1134A8079300000816F000080B500AF084B984773
S1134A90084B9847084B9847084B9847084B98474A
S1134AA00300DAB2074B1A70C046BD4680BDC0464B
S1134AB0316400002D30000075290000B92D00007C
S1134AC0792A00004C0F002080B500AF034B9847B3
S1134AD0034B9847C046BD4680BDC0465D64000098
S1134AE0F949000080B500AFC046BD4680BDC04650
S1134AF080B586B000AF786008001100FB1C021C72
S1134B001A70BB1C0A1C1A707B68002B1CD05E4BED
S1134B1000221A705D4B02221A705D4A7B681000F5
S1134B20190010231A005B4B98475B4B10221A7034
S1134B305A4B796810221800564B9847564B11224D
S1134B4019008320564B9847BB1C1B78002B02D0BE
S1134B50012B16D053E04D4B1B78012B51D14E4BFA
S1134B6010221A704D4A4A4B1000190010231A00E3
S1134B70484B9847484B112219008320484B9847CB
S1134B803FE0424B1B78012B3DD0434B10221A705F
S1134B903D4B1B7801225340DBB2002B1DD03E4B12
S1134BA000221A703C4B80225A743E4B01221A7028
S1134BB00823FB18002118003B4B9847364B102262
S1134BC01A70354B012219008320354B9847374B17
S1134BD0102219008420364B9847304A334B10007A
S1134BE0190010231A002B4B98472B4B1122190044
S1134BF083202B4B9847244B01221A7003E0002397
S1134C003DE0C04600E0C046204BBA1C12781A7042
S1134C10FB1C1B78002B01D0022B2FD1FB1C1B7813
S1134C201B015BB2702213405AB2BB1C1B78DB0021
S1134C305BB208210B405BB213435BB2DAB2164B92
S1134C401A70FB1C1B781B015BB2702213405AB212
S1134C50BB1C1B78DB005BB208210B405BB2134327
S1134C605BB28022524213435BB2DAB20A4B5A74EB
S1134C70C0460C4B01221A70012300E000231800E7
S1134C80BD4606B080BDC046F501002014000020DA
S1134C900C020020ADE90000F8010020F901002019
S1134CA03D590000F4010020B54C00001C02002016
S1134CB0015B000080B584B000AF786039601A4BA6
S1134CC0796810221800194B98470F23FB18184ACB
S1134CD0527C1A70174B1B78002B09D0144B1222EC
S1134CE019008320144B9847124B00221A7005E0D8
S1134CF00D4B1122190084200F4B98473B68002B61
S1134D0005D009493B6810221800084B9847084B06
S1134D100F22BA1812785A741820084B9847C046C4
S1134D20BD4604B080BDC046F9010020ADE90000D5
S1134D30F8010020F4010020D95C0000ADAD0000B2
S1134D4080B582B000AF78607B681022190084209F
S1134D50024B9847C046BD4602B080BD015B0000CF
S1134D6080B582B000AFEFF310837B607B685A425A
S1134D705341DBB23B6072B6BFF35F8F034B00223B
S1134D801A703B681800BD4602B080BD24000020A4
S1134D9080B582B000AF78607B685A1E9341DBB265
S1134DA01800BD4602B080BD80B582B000AF786007
S1134DB07B681800064B9847031E05D0054B01225B
S1134DC01A70BFF35F8F62B6C046BD4602B080BDA5
S1134DD0914D00002400002080B584B000AF020093
S1134DE0FB1D1A700F23FB18FA1D1278D2091A70D2
S1134DF00E23FB18FA1D127852091A700D4BBB6072
S1134E000F23FB181B78002B0FD10F23FB181B78E3
S1134E109B0010229446BC446344083B1A680E234A
S1134E20FB181B78DB01D31800E000231800BD46F3
S1134E3004B080BD0044004180B582B000AF0200E0
S1134E40FB1D1A70FB1D1B781800034B98470300C9
S1134E501800BD4602B080BDD94D000080B582B0B7
S1134E6000AF78607B6800221A707B6801225A7058
S1134E707B6800229A70C046BD4602B080BDC04621
S1134E8080B584B000AF0200FB1D1A70BB1D0A1C64
S1134E901A70FB1D1B7818000D4B98470300FB602C
S1134EA0FB1D1B781F22134001229A401300BB6094
S1134EB0BB1D1B78002B03D0FB68BA689A6102E023
S1134EC0FB68BA685A61C046BD4604B080BDC0469E
S1134ED0394E000080B582B000AF0200FB1D1A708D
S1134EE0064BFA1D127811001F220A40012191403D
S1134EF00A001A60C046BD4602B080BD00E100E071
S1134F0080B584B000AF78607B681B68FB60FB6889
S1134F10DB695A1E9341DBB21800BD4604B080BD64
S1134F2080B582B000AF78607B6801221A707B681C
S1134F3000225A607B6800229A607B68C022920338
S1134F40DA607B6800221A747B6800225A747B68DA
S1134F5001229A747B680122DA747B6800221A7534
S1134F607B682422002199547B6818330C22002189
S1134F7018000A4B98477B68094A9A617B680022AB
S1134F809A627B680022DA627B6800221A637B687B
S1134F9000225A63C046BD4602B080BDBFE900008E
S1134FA0A086010080B582B000AF78607B680A22D9
S1134FB01A707B6800225A707B6800229A70C0467F
S1134FC0BD4602B080BDC04680B584B000AF7860F5
S1134FD039603B681A787B681A703B685A787B683A
S1134FE05A703B689A787B689A700C23FB181800F7
S1134FF00B4B98470C23FB1801221A707B681B7813
S11350000C22BA1811001800064B98477B681B78CD
S113501001211800044B9847C046BD4604B080BD2A
S11350205D4E000035AE0000814E000080B584B0B6
S113503000AF78607B681B68FB607B681B681800A6
S11350400B4B9847030018000A4B9847C0467B68EF
S11350501800094B9847031EF9D1FB681B6802220C
S11350601A43FB681A60C046BD4604B080BDC04602
S113507019AA0000D54E0000014F000080B584B08D
S113508000AF78607B681B68FB60FB681B7EDBB24B
S11350901A00022313405A1E9341DBB21800BD4686
S11350A004B080BD80B584B000AF78607B681B68B5
S11350B0FB60FB681B7EDBB21A00012313405A1EFF
S11350C09341DBB21800BD4604B080BD80B584B006
S11350D000AF78607B681B68FB60FB681B7EDBB2FB
S11350E01A00042313405A1E9341DBB21800BD4634
S11350F004B080BD80B584B000AF78600A00BB1CEA
S11351001A807B681B68FB607B6818000A4B984711
S113511003001A0001235340DBB2002B01D0052306
S113512006E0BB1C1B88DB05DA0DFB689A620023D2
S11351301800BD4604B080BDA550000080B584B001
S113514000AF786039607B681B68BB607B681800BF
S11351501B4B984703001A0001235340DBB2002B7A
S113516001D0102327E00F23FB1800221A70BB681C
S11351705B8B9BB21A000423134006D00F23FB1849
S11351801E221A70BB6804225A837B689B79012B08
S113519008D1BB689B6A9BB2DB05DB0D9AB23B6806
S11351A01A8005E0BB689B6ADBB29AB23B681A803E
S11351B00F23FB181B781800BD4604B080BDC04601
S11351C0CD50000080B584B000AF0200FB1D1A7002
S11351D00F23FB18FA1D127852091A700F23FB18BB
S11351E01B78002B0CD1094BBB600F23FB181B78D9
S11351F09B0010229446BC446344083B1B6800E0B7
S113520000231800BD4604B080BDC046001800400D
S113521080B584B000AF0200FB1D1A70FB1D1B7823
S11352201800094B98470300FB60FB1D1B781F22E5
S1135230134001229A401300BB60FB68BA681A61EC
S1135240C046BD4604B080BDC551000080B500AF66
S11352500020064B9847064B1B68002B02D0044BDA
S11352601B689847C046BD4680BDC0461152000029
S11352702C02002080B584B000AF354B1800354BAC
S11352809847334B3F221A700C23FB181800324BFB
S113529098470C23FB1801221A700C23FB181900E1
S11352A02F202E4B98470C23FB18190014202B4B4E
S11352B09847274A2A4B110018002A4B98472A4B33
S11352C018002A4B9847284B80225202DA60264B5A
S11352D0274A9A61244B274A9A62234B012252425D
S11352E0DA62214B244A1A631F4B244A5A631E4A2A
S11352F02349244B1800244B9847224B1800234B76
S113530098473B001800224B98473B0020221A6024
S11353103B00802292035A603B0002221A723B0037
S113532001225A723B0000229A723B000122DA7277
S11353303B0019000020174B9847174B002200210F
S11353401800164B9847C046BD4604B080BDC04601
S1135350540F0020A54F00005D4E000035AE000044
S1135360580F0020C94F00005C0F0020214F00009F
S113537000093D000500530005003E0005005200F1
S113538000180042940F0020A1A200002D5000003C
S1135390BD330000F13300004D520000C1AB0000EA
S11353A080B500AF01212F200C4B98470021142019
S11353B00A4B9847A5235B001800094B9847002126
S11353C02F20064B98470A20054B984701212F2090
S11353D0024B9847C046BD4680BDC046814E000082
S11353E0ADAD000080B584B000AF0200FB1D1A70A3
S11353F00C23FB1800221A80444B984702000F2309
S1135400FB181A70FB1DFA1D1278802149420A43C9
S11354101A703F493F4B012218003F4B9847C04642
S11354203C4B18003D4B984703001A00012353409E
S1135430DBB2002BF4D1FB1D1B789AB2354B110063
S11354401800374B9847C046324B1800354B9847E5
S113545003001A0001235340DBB2002BF4D1C046F1
S11354602C4B1800304B984703001A00012353407B
S1135470DBB2002BF4D12D4A264B110018002C4B23
S11354809847C046234B1800244B984703001A0042
S113549001235340DBB2002BF4D11E4B0021180032
S11354A01F4B9847C0461B4B18001E4B98470300E0
S11354B01A0001235340DBB2002BF4D1C046154B34
S11354C01800194B984703001A0001235340DBB21C
S11354D0002BF4D10C23FA180E4B11001800144BB6
S11354E098470B490B4B002218000B4B98470F238E
S11354F0FB181B7818000F4B98470C23FB181B88CC
S1135500DBB21800BD4604B080BDC046614D00004A
S1135510580F0020940F002045A40000A55000005F
S1135520F55000007D500000CD500000500F0020C9
S11355303D510000A94D000080B584B000AF0200C9
S1135540FB1D1A70BB1D0A1C1A70434B98470200BE
S11355500F23FB181A70FB1DFA1D127840214942D3
S11355600A431A703D493E4B012218003D4B9847AF
S1135570C0463B4B18003C4B984703001A000123DC
S11355805340DBB2002BF4D1FB1D1B789AB2344B91
S113559011001800354B9847C046314B1800344B66
S11355A0984703001A0001235340DBB2002BF4D1C7
S11355B0C0462B4B18002F4B984703001A000123B9
S11355C05340DBB2002BF4D12B4A254B11001800B9
S11355D02A4B9847C046224B1800234B9847030098
S11355E01A0001235340DBB2002BF4D1BB1D1B78FE
S11355F09AB21B4B110018001C4B9847C046184B1D
S113560018001B4B984703001A0001235340DBB2D8
S1135610002BF4D1C046124B1800164B98470300D8
S11356201A0001235340DBB2002BF4D1124A0C4B75
S113563011001800114B98470849094B0022180023
S1135640084B98470F23FB181B7818000C4B9847FE
S1135650C046BD4604B080BD614D0000580F002017
S1135660940F002045A40000A5500000F550000050
S11356707D500000CD500000500F00203D5100002F
S1135680A94D000080B584B000AF78600A00FB1C0F
S11356901A70494B984702000F23FB181A704749A8
S11356A0474B01221800474B98470C23FB18202234
S11356B01A80C046424B1800434B984703001A0017
S11356C001235340DBB2002BF4D10C23FB181A88BE
S11356D03B4B110018003D4B9847C046384B18000F
S11356E03B4B984703001A0001235340DBB2002BC5
S11356F0F4D1C046324B1800364B984703001A00C9
S113570001235340DBB2002BF4D1334A2C4B11005C
S11357101800324B984738E0C046294B18002A4BF2
S1135720984703001A0001235340DBB2002BF4D145
S1135730234B00211800254B9847C046204B1800E6
S1135740234B984703001A0001235340DBB2002B7C
S1135750F4D1C0461A4B18001E4B984703001A0098
S113576001235340DBB2002BF4D10C23FA18144B61
S113577011001800194B98470C23FB181B88DAB248
S11357807B681A707B6801337B60FB1C1B78FA1CF6
S1135790591E1170002BBFD10849094B0022180073
S11357A0084B98470F23FB181B7818000C4B98479D
S11357B0C046BD4604B080BD614D0000580F0020B6
S11357C0940F002045A40000A5500000F5500000EF
S11357D07D500000CD500000500F00203D510000CE
S11357E0A94D000080B584B000AF78600A00FB1CAE
S11357F01A70474B984702000F23FB181A7045494B
S1135800454B01221800454B98470E23FB18602294
S11358101A70C046404B1800414B984703001A00C9
S113582001235340DBB2002BF4D10E23FB181B7869
S11358309AB2394B110018003A4B9847C046364B80
S11358401800394B984703001A0001235340DBB278
S1135850002BF4D1C046304B1800344B984703005A
S11358601A0001235340DBB2002BF4D1304A2A4BF7
S1135870110018002F4B984733E0C046264B180000
S1135880274B984703001A0001235340DBB2002B37
S1135890F4D17B685A1C7A601B789AB21E4B1100B3
S11358A01800204B9847C0461B4B18001E4B9847C6
S11358B003001A0001235340DBB2002BF4D1C0468D
S11358C0154B1800194B984703001A000123534045
S11358D0DBB2002BF4D1164A0F4B11001800154B04
S11358E09847FB1C1B78FA1C591E1170002BC4D15D
S11358F00849094B00221800084B98470F23FB184E
S11359001B7818000C4B9847C046BD4604B080BDB8
S1135910614D0000580F0020940F002045A40000A2
S1135920A5500000F55000007D500000CD5000004F
S1135930500F00203D510000A94D000080B584B0F7
S113594000AF39601100FB1D021C1A70BB1D0A1C3C
S11359501A70604B984702000F23FB181A705E49B7
S11359605E4B012218005E4B98470E23FB18402221
S11359701A70C046594B18005A4B984703001A0036
S113598001235340DBB2002BF4D10E23FB181B7808
S11359909AB2524B11001800534B9847C0464F4BD4
S11359A01800524B984703001A0001235340DBB2FE
S11359B0002BF4D1C046494B18004D4B98470300C7
S11359C01A0001235340DBB2002BF4D1494A434B64
S11359D011001800484B9847C046404B1800414BF3
S11359E0984703001A0001235340DBB2002BF4D183
S11359F0FB1D1B789AB2394B110018003A4B98479B
S1135A00C046364B1800394B984703001A0001234F
S1135A105340DBB2002BF4D1C046304B1800344B5A
S1135A20984703001A0001235340DBB2002BF4D142
S1135A30304A2A4B110018002F4B984733E0C046D8
S1135A40264B1800274B984703001A0001235340A4
S1135A50DBB2002BF4D13B685A1C3A601B789AB233
S1135A601E4B11001800204B9847C0461B4B1800D2
S1135A701E4B984703001A0001235340DBB2002B4E
S1135A80F4D1C046154B1800194B984703001A006F
S1135A9001235340DBB2002BF4D1164A0F4B110003
S1135AA01800154B9847BB1D1B78BA1D591E117061
S1135AB0002BC4D10849094B00221800084B984711
S1135AC00F23FB181B7818000C4B9847C046BD46A3
S1135AD004B080BD614D0000580F0020940F0020D9
S1135AE045A40000A5500000F55000007D500000C2
S1135AF0CD500000500F00203D510000A94D000082
S1135B0080B584B000AF39601100FB1D021C1A700F
S1135B10BB1D0A1C1A700120634B9847634B9847BE
S1135B2002000F23FB181A706149624B012218000E
S1135B30614B98470C23FB1800221A80C0465D4B2A
S1135B4018005E4B984703001A0001235340DBB250
S1135B50002BF4D10C23FB181A88564B11001800A3
S1135B60574B9847C046534B1800564B9847030071
S1135B701A0001235340DBB2002BF4D1C0464D4B35
S1135B801800514B984703001A0001235340DBB21D
S1135B90002BF4D14D4A474B110018004C4B984749
S1135BA0C046444B1800454B984703001A00012394
S1135BB05340DBB2002BF4D1FB1D1B789AB23D4B52
S1135BC0110018003E4B9847C0463A4B18003D4B15
S1135BD0984703001A0001235340DBB2002BF4D191
S1135BE0C046344B1800384B984703001A00012371
S1135BF05340DBB2002BF4D1344A2E4B1100180071
S1135C00334B984738E0C0462A4B18002B4B984733
S1135C1003001A0001235340DBB2002BF4D1254BBF
S1135C2000211800264B9847C046224B1800254BEC
S1135C30984703001A0001235340DBB2002BF4D130
S1135C40C0461C4B1800204B984703001A00012340
S1135C505340DBB2002BF4D10C23FA18154B11007E
S1135C6018001B4B98470C23FB181B88DAB23B68BF
S1135C701A703B6801333B60BB1D1B78BA1D591E6B
S1135C801170002BBFD10A490A4B002218000A4B9D
S1135C9098470F23FB181B7818000E4B9847C046F3
S1135CA0BD4604B080BDC046ADAD0000614D0000EE
S1135CB0580F0020940F002045A40000A5500000B8
S1135CC0F55000007D500000CD500000500F002022
S1135CD03D510000A94D000080B584B000AF39608B
S1135CE01100FB1D021C1A70BB1D0A1C1A7008232C
