S01700004D6F6973747572655F53656E736F722E73726563DC
S1130000D820002039B2000031B3000031B3000021
S113001000000000000000000000000000000000DC
S113002000000000000000000000000031B30000E8
S1130030000000000000000031B3000031B30000F4
S113004031B3000031B3000031B30000E901000016
S113005075A1000031B3000031B30000251B00007E
S113006031B30000259F00003D9F0000559F000014
S11300706D9F0000859F00009D9F000031B300002C
S113008031B3000031B30000699100007D9100009C
S113009091910000000000000000000031B3000056
S11300A031B300000000000031B300000000000084
S11300B00000000010B5064C2378002B07D1054B37
S11300C0002B02D0044800E000BF0123237010BDC0
S11300D07800002000000000BCCC0000084B10B5E4
S11300E0002B03D00749084800E000BF0748036815
S11300F0002B00D110BD064B002BFBD09847F9E72D
S1130100000000007C000020BCCC0000BCCC00003F
S11301100000000080B586B000AF7860314B7A688B
S11301209200D3587B617B691B683B610E23FB18EB
S11301307A69D28A1A807B699B8A9AB20E23FB1849
S11301400E21791809880A401A803B691B7ADAB2B1
S11301500C23FB181A803B69DB79DBB29AB20C23BF
S1130160FB180C21791809880A401A800C23FB1803
S11301701B88802213400CD00E23FB181B880422FA
S1130180134002D07B691B6998473B6980221A722D
S113019024E00C23FB181B88012213400CD00E23EF
S11301A0FB181B880122134002D07B699B68984787
S11301B03B6901221A7211E00C23FB181B880222EE
S11301C013400BD00E23FB181B880222134002D0CD
S11301D07B69DB6898473B6902221A72C046BD46B8
S11301E006B080BD280E002080B500AF0020024B71
S11301F09847C046BD4680BD1501000080B582B059
S113020000AF78607B6800221A70C046BD4602B019
S113021080BDC04680B582B000AF02003960FB1DCE
S11302201A70FB1D1B78012B0AD0022B0FD0002B58
S113023014D10E4B0D4A91693A680A439A610FE052
S11302400A4B0A4AD1693A680A43DA6108E0074B63
S1130250064A116A3A680A431A6201E0172300E069
S113026000231800BD4602B080BDC0460004004013
S113027080B582B000AF78607B6880221A707B689A
S113028000225A707B6801229A707B680022DA701F
S1130290C046BD4602B080BD80B500AF054B9B781B
S11302A0DBB21A00022313405A1E9341DBB218003A
S11302B0BD4680BD0020004180B584B000AF7860A9
S11302C07B681B68FB60FB68DB695A1E9341DBB2E9
S11302D01800BD4604B080BD80B582B000AF786020
S11302E0C0467B681800044B9847031EF9D1C046EA
S11302F0BD4602B080BDC046B9020000B0B58CB0A6
S113030002AF786039607B681B68BB617B681B68DF
S11303101800A94B984703007B617B6914333B6148
S113032000237B6200233B620A23FB1800221A800D
S11303301F23FB1800221A701E23FB1810221A70A8
S11303403B681B8A8022D20193421CD08022D201B6
S1130350934206DC002B0DD080229201934224D0DC
S113036035E0C022D201934228D080221202934267
S113037012D02CE01F23FB1800221A701E23FB1836
S113038010221A7023E01F23FB1800221A701E2368
S1130390FB1808221A701AE01F23FB1800221A7097
S11303A01E23FB1803221A7011E01F23FB180122DD
S11303B01A701E23FB1810221A7008E01F23FB1862
S11303C001221A701E23FB1808221A70C0463B68CB
S11303D01A683B68DB681A433B685B6913433A68F5
S11303E0128A13433A68127E120213433A68262192
S11303F0525C520713437B621D23FB1800221A70C0
S11304003B685B68FB60FB68002B1ED080225205B2
S113041093424FD13B6827229B5C01225340DBB2BD
S1130420002B46D03B681D6A3B69DBB21800634B66
S1130430984701001D23FC180A23FB181A00280002
S11304405F4B98470300237033E03B6827229B5C93
S1130450002B14D03B68186A3B68996A1D23FC186A
S11304601F23FB181D780A23FA181E23FB181B7878
S113047000932B00534DA847030023701AE03B68F8
S11304801D6A3B69DBB218004C4B98471D23FC18CE
S11304901F23FB1819780A23FA181E23FB181B784C
S11304A000930B0001002800464DA8470300237069
S11304B000E0C0461D23FB181B78002B03D01D232E
S11304C0FB181B7873E03B685B7E002B03D03B6812
S11304D09A7EBB699A730A23FB181A88BB699A81AE
S11304E07A6AFB6813437B623B6827229B5C012288
S11304F05340DBB2002B03D07B6A042213437B629C
S11305003B685B7E9A023B681B7F5B021A433B6835
S11305105B7F1B021A433B6824215B5C5B041A4328
S11305203B6825215B5C1B0413433B623B689B7A5D
S11305301A003B6A13433B623B68DB7A1A003B6A4E
S113054013433B623B681B89FF2B0BD07B6A8022E1
S1130550520413437B623B681B891A003B6A1343B2
S11305603B6208E03B68DB7E002B04D07B6A802280
S1130570D20413437B623B682C229B5C002B03D187
S1130580114B9847031E03D07B6A802213437B627E
S11305907B6818000D4B9847BB693A6A5A607B68C0
S11305A018000A4B9847BB697A6A1A60002318003E
S11305B0BD460AB0B0BDC0464D2B0000E9AF0000F7
S11305C0C52600004127000099020000D90200005E
S11305D090B593B000AFF860B9607A603B23FB1824
S11305E000221A70FB68BA681A60FB681B687B6398
S11305F0FB681B681800864B984703003B633B6B02
S11306000233FB623B6B1433BB627B6B1B680122BE
S1130610134001D00523F6E07B6B1B6802221340D4
S113062001D01C23EFE00122FB6A9A401300190059
S11306300220784B98472423FB181800764B9847E0
S11306407B682D229A5C2423FB181A70BB6ADBB2E8
S11306502422BA1811001800704B9847BB6ADBB209
S113066018006F4B98477B682D229B5C0021180073
S11306706C4B98477B68DA7AFB685A717B68242252
S11306809A5CFB689A717B6825229A5CFB68DA7134
S11306907B68DA7EFB681A727B681A7FFB685A7281
S11306A03B23FC187A68FB68110018005E4B9847DE
S11306B0030023703B23FB181B78002B03D03B2340
S11306C0FB181B789FE02023FB181800574B984712
S11306D02023FB1800225A702023FB1800229A7052
S11306E07B681A6B1023FB181A607B685A6B102303
S11306F0FB185A607B689A6B1023FB189A607B681E
S1130700DA6B1023FB18DA604723FB1800221A70F7
S11307102CE04723FB181A781023FB189200D358B7
S11307203B643B6C002B09D14723FB181A78BB6848
S1130730110018003E4B984703003B643B6C0133A7
S11307400DD03B6CDAB22023FB181A703B6C1B0CE7
S1130750DBB22022BA1811001800364B9847472301
S1130760FB181A784723FB1801321A704723FB1829
S11307701B78032BCDD90023FB630AE0FA68FB6BDB
S113078002339B00D318043300221A60FB6B01333D
S1130790FB63FB6B052BF1D9FB6800229A62FB68B3
S11307A000225A62FB680022DA85FB6800229A85DF
S11307B0FB68302200219954FB68312200219954AE
S11307C0FB68322200219954FB683322002199549A
S11307D0FB681B682722BC1818000D4B98470300C0
S11307E02370154A2723FB181B7811001800134B9C
S11307F098472723FB181A78114B9200F968D150B7
S11308003B23FB181B781800BD4613B090BDC046AF
S11308104D2B000015020000FD010000C5AE0000D4
S113082009AF000001290000FD0200007102000070
S11308308D290000B1B10000E90B00006D9E00009D
S1130840B810002080B584B000AF78600A00BB1CEB
S11308501A807B681B68FB607B68DB79012253404C
S1130860DBB2002B01D01C2313E07B68DB8D9BB231
S1130870002B01D005230CE0FB68BA1C12881A85F2
S1130880C046FB681B7EDBB21A0002231340F8D07B
S113089000231800BD4604B080BDC04680B584B0B6
S11308A000AF786039607B681B68FB607B689B796C
S11308B001225340DBB2002B01D01C235AE07B6899
S11308C09B8D9BB2002B01D0052353E0FB681B7E5C
S11308D0DBB21A000423134001D105234AE0FB686C
S11308E05B8B9BB2DAB20B23FB183F210A401A70D0
S11308F00B23FB181B78002B36D00B23FB181B781B
S11309000222134004D0FB6802225A831A2331E0E6
S11309100B23FB181B780422134004D0FB68042229
S11309205A831E2326E00B23FB181B780122134055
S113093004D0FB6801225A8313231BE00B23FB180A
S11309401B781022134004D0FB6810225A834223E0
S113095010E00B23FB181B782022134004D0FB6803
S113096020225A83412305E0FB681B8D9AB23B6821
S11309701A8000231800BD4604B080BD80B58AB03B
S113098000AFF860B960BB1D1A80BB1D1B88002B2B
S113099001D117237AE0FB68DB7901225340DBB2F3
S11309A0002B01D01C2371E0FB681B687B612623AC
S11309B0FB1800221A8048E000233B620FE07B69A9
S11309C01B7EDBB21A00012313400DD13B6A314A6E
S11309D0934201D1122359E03B6A01333B623B6AE3
S11309E02C4A9342EBD900E0C0462623FB181B880F
S11309F02622BA18591C11801A00BB689B181A7851
S1130A001E23FB181A80FB685B79012B15D1262362
S1130A10FB181B882622BA18591C11801A00BB68BF
S1130A209B181B781B021AB21E23FB1800215B5E65
S1130A3013431AB21E23FB181A801E23FB181A88AC
S1130A40FB6811001800144B9847BB1D1B88BA1D86
S1130A50591E1180002BAFD10023BB610FE07B69CD
S1130A601B7EDBB21A00022313400DD1BB69094A75
S1130A70934201D1122309E0BB690133BB61BB6915
S1130A80044A9342EBD900E0C04600231800BD4657
S1130A900AB080BDFFFF00004508000090B589B092
S1130AA000AFF860B960BB1D1A80BB1D1B88002B0A
S1130AB001D117236DE0FB689B7901225340DBB21F
S1130AC0002B01D01C2364E0FB681B687B611E23A0
S1130AD0FB1800221A8054E00023BB610FE07B69FD
S1130AE01B7EDBB21A00042313400DD1BB692B4AD1
S1130AF0934201D112234CE0BB690133BB61BB6952
S1130B00264A9342EBD900E0C0461023FB1800228A
S1130B101A801323FC181023FA18FB68110018001C
S1130B201F4B9847030023701323FB181B78002BDB
S1130B3003D01323FB181B782BE01E23FB181B8800
S1130B401E22BA18591C11801A00BB689B18102267
S1130B50BA181288D2B21A70FB685B79012B10D1D3
S1130B601E23FB181B881E22BA18591C11801A0058
S1130B70BB689B181022BA181288120A92B2D2B219
S1130B801A70BB1D1B88BA1D591E1180002BA3D1DE
S1130B9000231800BD4609B090BDC046FFFF000009
S1130BA09D08000080B584B000AF78607B681B6846
S1130BB0FB60FB68DB695A1E9341DBB21800BD463B
S1130BC004B080BD80B582B000AF7860C0467B6859
S1130BD01800044B9847031EF9D1C046BD4602B025
S1130BE080BDC046A50B000080B588B000AF0200F0
S1130BF0FB1D1A70FB1D1A78A34B9200D358BB61DE
S1130C00BB691B687B61BB691800A04B98477B6973
S1130C101B7EDAB21223FB181A807B699B7DDBB240
S1130C209AB21223FB181221791809880A401A80F3
S1130C30BB6930229B5CBA693121525C1340DAB241
S1130C401023FB181A801223FB181B88012213405F
S1130C5044D0BB69DB8D9BB2002B3CD0BB699B6A43
S1130C601B78DAB21C23FB181A80BB699B6A5A1CD6
S1130C70BB699A62BB695B79012B13D1BB699B6A1F
S1130C801B78DBB21B021AB21C23FB1800215B5E2B
S1130C9013431AB21C23FB181A80BB699B6A5A1CA3
S1130CA0BB699A621C23FB181B88DB05DB0D9AB217
S1130CB07B691A85BB69DB8D9BB2013B9BB2BA6928
S1130CC0191CD185002B09D17B6901221A757B6916
S1130CD002229A7502E07B6901221A751223FB181D
S1130CE01B880222134011D07B6902221A75BB694A
S1130CF03322002199541023FB181B88012213402E
S1130D0004D0BB69DB68BA69100098471223FB184A
S1130D101B880422134000D1BDE0BB699B8D9BB2AC
S1130D20002B00D1B4E07B695B8B9BB2DAB21F234A
S1130D30FB183F210A401A701F23FB181B78082256
S1130D40134007D01F23FB181F22BA18127808215A
S1130D508A431A701F23FB181B78002B50D01F23C3
S1130D60FB181B780222134007D0BB6932221A21D8
S1130D7099547B6902225A8336E01F23FB181B789F
S1130D800422134007D0BB6932221E2199547B6987
S1130D9004225A8328E01F23FB181B7801221340E6
S1130DA007D0BB693222132199547B6901225A83EB
S1130DB01AE01F23FB181B781022134007D0BB69CD
S1130DC03222422199547B6910225A830CE01F235A
S1130DD0FB181B782022134006D0BB693222412124
S1130DE099547B6920225A831023FB181B88042200
S1130DF0134050D0BB695B69BA69100098474AE058
S1130E007B691B8D9AB20E23FB18D205D20D1A8072
S1130E10BB695B6A0E22BA181288D2B21A70BB6917
S1130E205B6A5A1CBB695A62BB695B79012B0DD1A1
S1130E30BB695B6A0E22BA181288120A92B2D2B245
S1130E401A70BB695B6A5A1CBB695A62BB699B8D89
S1130E509BB2013B9BB2BA69191C9185002B1AD134
S1130E607B6904221A75BB6932220021995410232C
S1130E70FB181B88022213400DD0BB691B69BA6999
S1130E801000984707E0C046B8100020C50B0000CA
S1130E907B6904221A751223FB181B881022134045
S1130EA010D07B6910221A757B6910221A761023E0
S1130EB0FB181B881022134004D0BB69DB69BA6994
S1130EC0100098471223FB181B882022134010D0CF
S1130ED07B6920221A757B6920221A761023FB185D
S1130EE01B880822134004D0BB699B69BA691000AF
S1130EF098471223FB181B880822134010D07B69E3
S1130F0008221A757B6908221A761023FB181B889D
S1130F102022134004D0BB691B6ABA6910009847A9
S1130F20C046BD4608B080BD80B582B000AFA44BBA
S1130F301B681B681B8C9BB2002B0AD0A04B1B6840
S1130F401B681B8C9BB21A009E4B10009847030031
S1130F5000E020237B607B681F2B00D904E2984BC0
S1130F601B681A687B6808335B01D31807331B7846
S1130F70DBB23B603B680322134000D188E00122CE
S1130F807B689A401300DB431A008F4B1B681A409E
S1130F908D4B1A608A4B1B681A687B6808335B01A7
S1130FA0D318073303221A70854B1A68AE217B6865
S1130FB0D3185B181B781A000123134068D07B6890
S1130FC0DAB2824B1A707E4B1B681B687A6808324F
S1130FD05201D35C9B079B0FDBB2012B1ED17C4AD1
S1130FE07B685B01D3185B689B049B0C9BB21A0063
S1130FF0764B5A80764A7B685B01D3185B681B0189
S11310009B0C9BB21A00714B9A80714A7B685B01FE
S1131010D3185A68920B92035A602CE06C4A7B688E
S11310205B01D3185B681B019B0C9BB21A00674BD6
S11310305A80674A7B685B01D3185B689B049B0CEE
S11310409BB21A00614B9A80614A7B685B01D3189A
S11310505A6860490A405A605C4B5B88002B0AD18D
S11310605B4A7B685B01D3185B689B049B0C9BB257
S11310701A00564B5A80524B1A687B6802331B0184
S1131080D31804331A684E4B1B6850491800904714
S11310903B680422134000D1AFE0494B1B681B6836
S11310A07A6808325201D35C9B065B0FDBB2022BD9
S11310B051D1434B1B681B687A6808325201D35CD8
S11310C09B079B0FDBB2012B45D1414A7B685B0137
S11310D0D31808339B78DB07DB0FDBB2002B3AD045
S11310E001227B689A401300DB431A00364B1B68CD
S11310F01A40354B1A60364A7B685B01D3180A33B1
S113110000221A702E4B1B681A687B6808335B0137
S1131110D318073304221A70294B1A68AE217B684E
S1131120D3185B181B781A000223134065D07B6820
S1131130DAB2264B1A70254B10225A70204B1A68CB
S11311407B681B01D31828331A681D4B1B681F4981
S11311501800904751E01A4B1B681B687A680832E4
S11311605201D35C9B065B0FDBB2032B34D1144BCF
S11311701B681B687A6808325201D35C9B079B0F7B
S1131180DBB2012B28D1124A7B685B01D3180A33E6
S113119000221A700A4B1B681A687B6808335B01CB
S11311A0D318073304221A70054B1B681A687B682E
S11311B008335B01D318053310221A701DE0C046B2
S11311C094000020A9B60000AC0000209800002084
S11311D02C0E0020FF3F00F0834A7B685B01D3188C
S11311E00A3300221A70814B1B681A687B68083323
S11311F05B01D318073304221A703B68082213409A
S11312003CD001227B689A401300DB431A00784BE0
S11312101B681A40764B1A60744B1B681A687B680B
S113122008335B01D318073308221A706F4B1A680E
S1131230AE217B68D3185B181B781A000223134075
S11312401CD07B68DAB26B4B1A70674A7B685B010F
S1131250D3180E331B889BB2DBB21F221340DAB2C1
S1131260644B5A70614B1A687B681B01D31828338E
S11312701A685E4B1B685F49180090473B68102250
S113128013403AD001227B689A401300DB431A00D2
S1131290574B1B681A40564B1A60544B1B681A680C
S11312A07B6808335B01D318073310221A704F4B45
S11312B01A68AE217B68D3185B181B781A000423C4
S11312C013401AD07B68DAB24A4B1A70464A7B68DC
S11312D05B01D3185B681B019B0C9BB21A00454B46
S11312E05A80424B1A687B681B01D3182C331A6846
S11312F03E4B1B680021180090473B682022134096
S113130000D146E101227B689A401300DB431A00B6
S1131310374B1B681A40364B1A60344B1B681A68EB
S11313207B6808335B01D318073320221A702F4BD4
S11313301A68AE217B68D3185B181B781A0008233F
S1131340134000D125E17B68DAB22A4B1A70274B8F
S11313501A687B681B01D31830331A68234B1B6847
S113136024491800904714E1204B1B681B689B8B91
S11313709BB23B603B680422134053D01B4B1B6859
S11313801B6804229A8301237B6039E001227B6875
S11313909A4013001A00164B1B68134022D0134BBB
S11313A01B681B687A6808325201D35C9B065B0F8A
S11313B0DBB2032B20D10D4B1B681B687A68083203
S11313C05201D35C9B079B0FDBB2012B14D1074B5B
S11313D01B681A687B6808335B01D3180433102236
S11313E01A700AE0C04608E02C0E00209400002089
S11313F0AC00002098000020C0467B6801337B606D
S11314007B68072BC2D9654B1B68A5229B5C1A001D
S11314100123134006D0614B1B685A685F4B1B685D
S1131420180090473B680822134016D05C4B0022FA
S11314301A605A4B1B681B6808229A83574B1B6817
S1131440A5229B5C1A000223134006D0534B1B6851
S11314509A68524B1B68180090473B68402213401F
S113146013D04E4B1B681B6840229A834B4B1B685E
S1131470A5229B5C1A001023134006D0474B1B681F
S11314805A69464B1B68180090473B68202213405A
S113149013D0424B1B681B6820229A833F4B1B6866
S11314A0A5229B5C1A000823134006D03B4B1B6803
S11314B01A693A4B1B68180090473B681022134086
S11314C013D0364B1B681B6810229A83334B1B685E
S11314D0A5229B5C1A000423134006D02F4B1B68E3
S11314E0DA682E4B1B68180090473B688022134033
S11314F016D02B4B00221A60284B1B681B688022D5
S11315009A83264B1B68A5229B5C1A002023134058
S113151006D0224B1B689A69204B1B681800904721
S11315203A6880235B00134017D01D4B00221A60D9
S11315301A4B1B681B68802252009A83174B1B6846
S1131540A5229B5C1A004023134006D0134B1B6852
S1131550DA69124B1B68180090473A6880239B0095
S1131560134016D00E4B00221A600C4B1B681B68EC
S1131570802292009A83094B1B68A5229B5C5BB274
S1131580002B06DA054B1B681A6A044B1B6818000B
S11315909047C046BD4602B080BDC04694000020BE
S11315A0AC00002080B584B000AFBD4B1B681A6846
S11315B00823FB18128C1A800823FB181B88002BA5
S11315C055D1B74B1B681A68BB1D928B1A80B44B5C
S11315D01A68AB235B00D35ABA1D128813409AB21F
S11315E0AF4B1968AA235B00C95A3B1D0A401A80F5
S11315F00023FB6037E0AB4BFA685200D35ABA1DA4
S1131600128813409BB2002B07D0A54B1B681B68A4
S1131610A44AF96849008A5A9A83A24BFA6852008C
S1131620D35A3A1D128813409BB2002B18D0FB6882
S1131630062B0AD19C4B1B895B045B0D9BB21A00E1
S113164080235B001A40994B1A60954B1B68FA681B
S11316502E329200D258924B1B689449180090473E
S1131660FB680133FB60FB68062BC4DD50E20B23EF
S1131670FB1800221A703BE20823FB181A880B237C
S1131680FB181B781A4113000122134000D128E2F1
S1131690834B1B681A680B23FB181B7808335B0108
S11316A0D31807331B78DAB2BB1D1A807C4B196838
S11316B00B23FB181A78B0235B008A18D3181B7805
S11316C09BB2BA1D128813409BB21AB2744B1868AD
S11316D00B23FB181978AC235B004118CB181B783B
S11316E01BB213401AB23B1D1A80BB1D1B8860221B
S11316F013405CD06A4B1B681A680B23FB181B78D9
S113170008335B01D31807331B78DBB21A0040237C
S1131710134015D0624B1B681A680B23FB181B7807
S113172008335B01D318073340221A700B23FB18CC
S11317301B78802252421343DAB25D4B9A7120E047
S1131740574B1B681A680B23FB181B7808335B0183
S1131750D31807331B78DBB21A002023134010D0B0
S11317604F4B1B681A680B23FB181B7808335B016B
S1131770D318073320221A704D4B0B22BA18127853
S11317809A713B1D1B886022134000D1B7E1444B82
S11317901A680B23FB181B78E0211B01D3185B1874
S11317A01A683F4B1B68424918009047A7E1BB1DCC
S11317B01B881022134038D0394B1B681A680B233E
S11317C0FB181B7808335B01D318073310221A70F7
S11317D0334B19680B23FB181A78B0235B008A1863
S11317E0D3181B7810221340DBB2002B00D188E100
S11317F00B23FB181B782C4A5B01D3185B689B04F2
S11318009B0C9BB21A002A4B1A80254B1A680B2397
S1131810FB181B78DC211B01D3185B181A68204BBA
S11318201B682349180090476BE1BB1D1B880322EA
S1131830134000D18FE01A4B1B681A680B23FB1866
S11318401B7808335B01D31807331B78DBB21A000B
S1131850022313402ED0124B1B681A680B23FB186B
S11318601B7808335B01D318073302221A700B2349
S1131870FB181B78802252421343DAB20C4B9A7144
S11318800B23FB181B78084A5B01D31810335B68E1
S11318909B049B0C9BB21A00054B5A8045E0C04642
S11318A09400002098CA00002C0E0020A000002004
S11318B0A4000020984B1B681A680B23FB181B78A4
S11318C008335B01D31807331B78DBB21A000123FA
S11318D013402AD0904B1B681A680B23FB181B7803
S11318E008335B01D318073301221A708B4B0B2288
S11318F0BA1812789A710B23FB181B78884A5B017B
S1131900D3185B689B049B0C9BB21A00834B1A8010
S11319100B23FB181B78824A5B01D3185B681B01FD
S11319209B0C9BB21A007D4B9A803B1D1B880322A3
S1131930134000D1E7E0784B1A680B23FB181B789F
S11319400D331B01D31804331A68734B1B68734996
S113195018009047D7E0BB1D1B880C22134000D110
S1131960BFE06D4B1B681A680B23FB181B78083308
S11319705B01D31807331B78DBB21A00082313402A
S113198047D0654B1B681A680B23FB181B78083378
S11319905B01D318073308221A700B23FB181B783A
S11319A05F4A5B01D3181A331B78DBB21A00022397
S11319B0134014D00B23FB181B780B22BA1812788F
S11319C0574952018A181A321278D2B202218A4334
S11319D0D1B2534A5B01D3181A330A1C1A700B2371
S11319E0FB181B78802252421343DAB24B4B9A7194
S11319F0494B1B681A680B23FB181B7808335B01DF
S1131A00D31807331B78DBB21A000223134053D0D8
S1131A107EE0414B1B681A680B23FB181B780833C4
S1131A205B01D31807331B78DBB21A00042313407D
S1131A3042D0394B1B681A680B23FB181B780833F8
S1131A405B01D318073304221A700B23FB181B788D
S1131A50334A5B01D3180A331B78DBB21A00022322
S1131A60134014D00B23FB181B780B22BA181278DE
S1131A702B4952018A180A321278D2B202218A43BF
S1131A80D1B2274A5B01D3180A330A1C1A70234BBC
S1131A900B22BA1812789A711F4B1B681A680B2311
S1131AA0FB181B7808335B01D31807331B78DBB2B0
S1131AB01A000123134028D13B1D1B880C2213401C
S1131AC025D0154B1A680B23FB181B78D8211B0152
S1131AD0D3185B181A68104B1B68104918009047FC
S1131AE015E00B23FB181A780B23FB1801321A702C
S1131AF00B23FB181B78072B00D8BDE508E0C04674
S1131B0006E0C04604E0C04602E0C04600E0C0462D
S1131B10BD4604B080BDC04694000020A40000204F
S1131B202C0E002080B500AF084B1B681B681B7887
S1131B301B06DB0FDBB2002B02D0054B984701E0FC
S1131B40044B9847C046BD4680BDC0469400002063
S1131B50290F0000A515000080B586B000AFF8601D
S1131B60B9607A6000237B61FB68002B12D00123EB
S1131B705B4213E00B4B1A680B4B1B68B9681800E7
S1131B809047BB680133BB607B6901337B617B6831
S1131B90013B7B607B68002BECDC7B691800BD4655
S1131BA006B080BD2C0F0020340F002080B586B015
S1131BB000AFF860B9607A6000237B61FB68012B99
S1131BC01DD0FB68022B1AD0FB68032B17D001230E
S1131BD05B4218E00E4B1A680E4B1868BB68591C20
S1131BE0B9601B7819009047031E02DA01235B4297
S1131BF009E07B6901337B617B68013B7B607B6827
S1131C00002BE7D17B691800BD4606B080BDC046F5
S1131C10300F0020340F002080B582B000AF0200E6
S1131C20FB1D1A70064BFA1D127811001F220A4080
S1131C30012191400A001A60C046BD4602B080BD31
S1131C4000E100E080B584B000AF78607B681B6879
S1131C50FB60FB68DB695A1E9341DBB21800BD468A
S1131C6004B080BD80B582B000AF7860C0467B68A8
S1131C701800044B9847031EF9D1C046BD4602B074
S1131C8080BDC046451C000080B582B000AF7860BE
S1131C907B688022D2051A607B6800225A607B68C8
S1131CA0FF221A817B6800229A727B680022DA7212
S1131CB07B68962292011A627B682422012199543E
S1131CC07B682522012199547B682622002199549E
S1131CD07B682722002199547B6800229A627B68E2
S1131CE088225203DA607B682C22002199547B6895
S1131CF02D22002199547B6800221A637B680022FC
S1131D005A637B6800229A637B680022DA637B68EB
S1131D1000225A617B6800221A827B680022DA76EC
S1131D207B6800221A767B6800221A777B6800227F
S1131D305A767B6813229A767B6800225A77C046CB
S1131D40BD4602B080BDC04680B584B000AF7860A7
S1131D507B681B68FB607B681B681800094B98470D
S1131D6003001800084B98477B681800074B9847F6
S1131D70FB681B6802221A43FB681A60C046BD4612
S1131D8004B080BDD99E0000191C0000651C000031
S1131D9080B584B000AF78600A00FB1C1A707B68C1
S1131DA01B68FB607B681800134B9847FB1C1B786F
S1131DB0002B02D0012B0BD015E0FB685B6880225E
S1131DC092021A43FB685A607B6801229A710AE006
S1131DD0FB685B68802252021A43FB685A607B6886
S1131DE00122DA71C0467B681800034B9847C0464D
S1131DF0BD4604B080BDC046651C000080B584B0FB
S1131E0000AFF860B9607A607A68B968FB68180056
S1131E10054B9847031E01D1012300E0002318005D
S1131E20BD4604B080BDC046D105000080B582B077
S1131E3000AF78600A00FB1C1A70C046FB1C1B78BC
S1131E409AB27B6811001800044B9847031EF5D121
S1131E5000231800BD4602B080BDC04645080000FE
S1131E6080B584B000AF786039600E23FB1800227F
S1131E701A80C0460E23FA187B6811001800074B1D
S1131E809847031EF6D10E23FB181B88DAB23B6871
S1131E901A70C046BD4604B080BDC0469D0800000F
S1131EA080B584B000AFF860B960BB1D1A80BB1D5B
S1131EB01A88B968FB681800034B98470300180098
S1131EC0BD4604B080BDC0467D09000080B584B025
S1131ED000AFF860B960BB1D1A80BB1D1A88B968D1
S1131EE0FB681800034B984703001800BD4604B074
S1131EF080BDC0469D0A000080B584B000AFF86084
S1131F00B9607A60104BFA681A60104B104A1A6074
S1131F10104B114A1A607A68B968FB6818000F4BB5
S1131F2098470F4B1B689B68002118000D4B98477E
S1131F300B4B1B685B68002118000A4B9847C0468E
S1131F40BD4604B080BDC046340F0020300F0020D1
S1131F502D1E00002C0F0020611E0000FD1D00003E
S1131F607400002001C3000080B590B000AF3B00B6
S1131F7018001F4B98473B00C4229203DA603B00D1
S1131F80012252421A633B00012252425A633B002F
S1131F90184A9A633B00184ADA633B00962292017E
S1131FA01A623B002D22032199543A001349144B21
S1131FB01800144B9847124B1800134B9847104BBA
S1131FC001211800114B98470D4B002118000F4BAD
S1131FD098470F4B190000200E4B9847074B0422DB
S1131FE09A7509200C4B9847C046BD4610B080BD79
S1131FF0891C0000030006000300070000080042DB
S1132000B0000020F91E0000491D0000911D0000D1
S1132010812100006D9E0000191C000090B585B060
S113202000AF78600A00FB1C1A70FB1C1B789AB284
S11320300F23FC187968084B1800084B98470300D5
S113204023700F23FB181B78002BEED1FB1C1B788D
S11320501800BD4605B090BDB0000020A11E0000D0
S113206080B584B000AF78600A00FB1C1A700F239F
S1132070FB1800221A70354B1A78354B1B789A429C
S113208008D3324B1A78324B1B78D31ADAB2314B5D
S11320901A7009E02D4B1A782D4B1B78D31ADBB23A
S11320A0643BDAB22B4B1A702A4B1B78002B01D1FC
S11320B0002346E0274B1B789B2B0ED9234B1A7821
S11320C0234B1A70234B9C221A70FB1C1B789B2BEE
S11320D00DD9FB1C9C221A7009E01E4B1B78FA1CBC
S11320E012789A4203D9FB1C1A4A12781A700F23E9
S11320F0FB18FA1C12781A701CE0154B1B781A0096
S1132100154B9A5C7B681A707B6801337B60FB1CFF
S11321101A78FB1C013A1A700D4B1B789B2B03D1C8
S11321200B4B00221A7005E0094B1B780133DAB21D
S1132130074B1A70FB1C1B78002BDED10F23FB18F6
S11321401B781800BD4604B080BDC0468101002044
S11321508001002082010020E400002080B582B0CC
S113216000AF0200FB1D1A70FB1D01211800034B78
S11321709847C046BD4602B080BDC0461D20000041
S113218080B584B000AF0200FB1D1A700F23F9184C
S1132190154B01221800154B984772B6BFF35F8F99
S11321A0134B00221A70134B1B781A000F23FB18D1
S11321B01978114B99540F4B1B789B2B03D10D4B62
S11321C000221A7005E00B4B1B780133DAB2094B7D
S11321D01A70074B01221A70BFF35F8F62B6C046B4
S11321E0BD4604B080BDC046B0000020CD1E000036
S11321F01000002081010020E400002080B582B09E
S113220000AF78607B6800221A70C046BD4602B0F9
S113221080BDC04680B582B000AF02003960FB1DAE
S11322201A70FB1D1B78012B0AD0022B0FD0002B38
S113223014D10E4B0D4A91693A680A439A610FE032
S11322400A4B0A4AD1693A680A43DA6108E0074B43
S1132250064A116A3A680A431A6201E0172300E049
S113226000231800BD4602B080BDC04600040040F3
S113227080B582B000AF78607B6880221A707B687A
S113228000225A707B6801229A707B680022DA70FF
S1132290C046BD4602B080BD80B582B000AF02002A
S11322A0FB1D1A70064BFA1D127811001F220A40FA
S11322B0012191400A001A60C046BD4602B080BDAB
S11322C000E100E080B584B000AF0200FB1D1A708D
S11322D00F23FB18FA1D127852091A700F23FB18EA
S11322E01B78002B0CD1094BBB600F23FB181B7808
S11322F09B0010229446BC446344083B1B6800E0E6
S113230000231800BD4604B080BDC046001800403C
S113231080B582B000AF0F4B3B6000237B6011E0BF
S11323207B689B0008229446BC446344083B1B68BA
S11323305B78DBB25BB2002B01DA012306E07B6839
S113234001337B607B68002BEAD000231800BD4674
S113235002B080BD0018004080B584B000AF2D4BA2
S11323607B60402100202C4B98473B0018002B4BEE
S113237098473B0000221A703B0019000520284BA7
S113238098470520274B98470023FB6018E0FB681B
S11323909B0010229446BC4463440C3B1A68FB68BF
S11323A09B0010218C46BC4463440C3B1B681B7887
S11323B0DBB201210B43DBB21370FB680133FB601A
S11323C0FB68002BE3D0C046174B9847031EFBD194
S11323D00B23FB1800221A700DE00B23FB181A784C
S11323E0124B92000021D1500B23FB181A780B23B7
S11323F0FB1801321A700B23FB181B780F2BECD936
S113240004200B4B98470B4B9847C046BD4604B07D
S113241080BDC0460018004015220000FD210000C8
S1132420C5AE000009AF000011230000380F0020E2
S1132430992200003924000080B582B000AF154B0A
S11324403B6000237B6018E07B689B000822944675
S1132450BC446344083B1A687B689B0008218C4693
S1132460BC446344083B1B681B78DBB202210B436A
S1132470DBB213707B6801337B607B68002BE3D095
S1132480C046054B9847031EFBD1C046BD4602B06B
S113249080BDC046001800401123000080B582B002
S11324A000AF78607B6800221A607B6800225A6063
S11324B07B6801221A727B6801225A727B680022AF
S11324C09A727B680222DA72C046BD4602B080BDB1
S11324D080B586B000AF02003960FB1D1A70082376
S11324E0FB181800364B98473B685B68DAB2082340
S11324F0FB181A700823FB1800225A703B681A7ADA
S11325000823FB189A703B681B68DBB20822BA18D0
S1132510110018002B4B9847FB1D1B7818002A4B01
S1132520984703003B61FB1D1B78072213409B0067
S1132530FB603B68DB7A7B613B689B7A002B03D0B2
S11325407B69082213437B61FB1D1B78DB08DBB22C
S11325501800FB1D1B78DB08DBB21A003B6906324E
S11325609200D3580F21FA6891400A00D2431A40CE
S11325707969FB6899400B001A4311003B69821D7D
S11325809200D1503B685B7A002B0AD03B695A69B0
S1132590FB1D1B78012199400B001A433B695A61CA
S11325A00AE03B695B69FA1D1278012191400A0037
S11325B0D2431A403B695A61C046BD4606B080BD4D
S11325C071220000B1B10000C522000080B582B0C4
S11325D000AF78607B6800221A70C046BD4602B026
S11325E080BDC046F0B58DB000AFB860F9603A6008
S11325F07B60002300243B627C6200230024BB61D7
S1132600FC613F23FB6253E0FB6A203B002B04DBAD
S113261001229A4013007B610BE0FB6A2022D31A4B
S11326200122DA4013000021FA6A91400A001343A0
S11326307B610122FB6A9A4013003B61BB69FC6920
S1132640DB186441BB61FC61BB683A691A40150040
S1132650FB687A691A4016002B00334307D0BB6924
S113266001221343BB61FB6900221343FB617A68B7
S1132670FB699A4219D87A68FB699A4203D13A688D
S1132680BB699A4211D8B969FA693B687C68C91A6E
S1132690A2410B001400BB61FC613A6A3B6913431D
S11326A03B627A6A7B6913437B62FB6A013BFB6290
S11326B0FB6A002BA8DA3B6A7C6A18002100BD463D
S11326C00DB0F0BD80B586B000AFF860B9607A6037
S11326D01623FB1800221A80BB683B61BB685A08AA
S11326E0FB689A4201D2402326E0BB685B083B6149
S11326F00AE03A69FB68D31A3B611623FB181A886F
S11327001623FB1801321A803A69FB689A42F0D208
S11327101623FB181622BA181288013A1A801623B7
S1132720FB181B88FF2B01D9402305E07B68162288
S1132730BA1812881A8000231800BD4606B080BD5E
S1132740F0B5A1B000AFF864B9647A644322BA1852
S11327501370002300243B677C6700230024BB66BE
S1132760FC6600230024BB67FC6700237B665823B8
S113277040229446BC4463441A78FB6C5A43BB6CB5
S11327809A4201D94023B3E04323FB181B78002B62
S11327903DD1582340229446BC4463441B78DBB2A9
S11327A03B6100237B61FB6CBB600023FB60524CEC
S11327B0BA68FB6838697969A04703000C001B00FC
S11327C0FB650023BB65BB6C3B6000237B60B86D7D
S11327D0F96D3A687B68494CA04703000C003B67DD
S11327E07C67002101223B6F7C6FC91AA2410B0058
S11327F01400BB66FC66BB6E1B0CFA6E16041E430B
S1132800BB6E1D043300BB670023FB676AE04323F0
S1132810FB181B78012B65D1FB6C3B6300237B63A6
S1132820582340229446BC4463441B78DBB2BB6209
S11328300023FB62304CBA6AFB6A386B796BA047A1
S113284003000C00BB65FC65BB6C3B6200237B6230
S1132850BB6DFC6D1A002300386A796A274CA047C7
S113286003000C007B667A6E80239B019A4201D997
S113287040233DE0BB6CBB610023FB61B969FA698D
S11328800B005B0F1000C000F863F86B1843F8638B
S11328900B00DB00BB63BB6DFC6D1A002300B86B3F
S11328A0F96B164CA04703000C00BB65FC65BB6DBF
S11328B0FC6DD9B27B6EDBB2DB00DAB217234020A9
S11328C08446BC4463448A1A1A70172340229446EF
S11328D0BC4463441B785B031A007B6E1343BB67E1
S11328E00023FB67BB6FFC6F9AB27B6C1A800023DA
S11328F01800BD4621B0F0BDE9B60000E525000092
S113290080B584B000AF0200FB1D1A70BB1D0A1C09
S11329101A701A4B1B7801225340DBB2002B03D1EF
S1132920BB1D1B78002B1BD00C23FB181800144B69
S113293098470C23FB18FA1D12781A700C23FB1805
S1132940190013200F4B984713200F4B98470B4B3C
S1132950FA1D12785A70094B01221A70002308E0FC
S1132960064B5B78FA1D12789A4201D1002300E0ED
S11329701D231800BD4604B080BDC046840100205C
S1132980CD250000C5AE000009AF000080B582B0BF
S113299000AF78600A00FB1C1A707B684D4A9342B2
S11329A03FD04C4A934206D84B4A93420FD04B4AED
S11329B0934221D089E04A4A934200D15BE0494ADC
S11329C0934200D16CE0484A93423FD07DE0FB1C27
S11329D01B78012B0AD002DC002B05D075E0022BFA
S11329E006D0032B06D070E0404B6FE0404B6DE007
S11329F0404B6BE0404B69E0FB1C1B78012B0AD079
S1132A0002DC002B05D060E0022B06D0032B06D09D
S1132A105BE03A4B5AE03A4B58E03A4B56E03A4BBB
S1132A2054E0FB1C1B78012B0AD002DC002B05D0E0
S1132A304BE0022B06D0032B06D046E0334B45E097
S1132A40334B43E0334B41E0334B3FE0FB1C1B78FB
S1132A50012B0AD002DC002B05D036E0022B06D075
S1132A60032B06D031E02D4B30E02D4B2EE02D4BC7
S1132A702CE02D4B2AE0FB1C1B78012B0AD002DC36
S1132A80002B05D021E0022B06D0032B06D01CE03E
S1132A90264B1BE0264B19E0264B17E0264B15E08E
S1132AA0FB1C1B78012B0AD002DC002B05D00CE0A8
S1132AB0022B06D0032B06D007E0204B06E0204B68
S1132AC004E0204B02E0204B00E000231800BD4648
S1132AD002B080BD0010004200080042000C004219
S1132AE000180042001C00420014004202000800CA
S1132AF002000900030006000300070002001000A2
S1132B00020011000200120002001300030008007A
S1132B100300090002000E0002000F0005001B0064
S1132B2005001C00020018000200190005005300F3
S1132B3005003F0005003E000500520003003E0072
S1132B4003003F00030018000300190090B58BB088
S1132B5000AF78600C23FB180F4A13CA13C313CABF
S1132B6013C300237B620EE00C23FB187A6A9200E5
S1132B70D3581A1E7B689A4202D17B6ADBB206E004
S1132B807B6A01337B627B6A052BEDD90023180035
S1132B90BD460BB090BDC046A8CA000080B582B047
S1132BA000AF78607B6800221A70C046BD4602B050
S1132BB080BDC04680B582B000AF02003960FB1D05
S1132BC01A70FB1D1B78012B0AD0022B0FD0002B8F
S1132BD014D10E4B0D4A91693A680A439A610FE089
S1132BE00A4B0A4AD1693A680A43DA6108E0074B9A
S1132BF0064A116A3A680A431A6201E0172300E0A0
S1132C0000231800BD4602B080BDC0460004004049
S1132C1080B582B000AF78607B6880221A707B68D0
S1132C2000225A707B6801229A707B680022DA7055
S1132C30C046BD4602B080BD80B584B000AF7860A8
S1132C407B681B68FB60FB68DB7BDBB21A008023BC
S1132C5013405A1E9341DBB21800BD4604B080BD38
S1132C6090B587B000AF78600823FB180D4A13CAEB
S1132C7013C300237B610DE00823FB187A699200DB
S1132C80D2587B689A4202D17B69DBB206E07B6949
S1132C9001337B617B69022BEED900231800BD460A
S1132CA007B090BDC0CA000090B58DB000AFF86009
S1132CB0B9607A602E23FB1800221A802D23FB189A
S1132CC000221A702C23FB1800221A702923FC18E6
S1132CD0BB681800BF4B9847030023702423FA18DD
S1132CE0BD4B1000190003231A00BC4B98471C234A
S1132CF0FA18BB4B1000190006231A00B74B98476B
S1132D002B23FB1800221A700EE02B23FB181A78D1
S1132D10FB68023292000021D1502B23FB181A7851
S1132D202B23FB1801321A702B23FB181B78032B5F
S1132D30EBD9FB6800221A76FB6800225A76292315
S1132D40FB181A78A74B9200F968D150FB68BA684F
S1132D501A607B689B78082B08D12923FB181B7801
S1132D6003330122134001D01723C4E17B689A780E
S1132D70FB681A71BB681B889BB21A0001231340BD
S1132D8001D00523B7E1BB68DB7BDBB21A0010235B
S1132D90134001D01C23AEE1BB681B889BB21A0010
S1132DA00223134001D01C23A5E17B681B7C002B6C
S1132DB017D01823FB1818008B4B98477B689B6926
S1132DC0DAB21823FB181A701823FB1801225A7060
S1132DD07B685B69DBB21822BA1811001800834BB8
S1132DE098477B681B7F002B17D01823FB1818000B
S1132DF07D4B98477B685B6ADAB21823FB181A701C
S1132E001823FB1801225A707B681B6ADBB2182254
S1132E10BA1811001800754B98472923FB181A7823
S1132E201C23FB185200D35A19000220704B9847F8
S1132E307B689B78082B0BD12923FB181B785A1C21
S1132E401C23FB185200D35A19000220684B9847E0
S1132E501423FB181800674B98477B681A781423CF
S1132E60FB181A702923FB181B782422BA18D35C88
S1132E701422BA18110018005F4B98472923FB1835
S1132E801B782422BA18D35C18005C4B98477B68E3
S1132E909A787B689B791343DBB29AB27B681B896F
S1132EA0134399B27B689A882E23FB180A431A802D
S1132EB07B685B78002B08D02E23FB182E22BA18CF
S1132EC01288802109010A431A80C046FB68180051
S1132ED04B4B9847031EF9D1BB682E22BA181288AF
S1132EE01A807B685B7B002B03D02D23FB18042204
S1132EF01A707B689B7B002B07D02D23FB182D2297
S1132F00BA18127801210A431A70C046FB681800E7
S1132F103B4B9847031EF9D1BB68FF221A712D233E
S1132F20FB181B78002B0BD0C046FB681800344BF1
S1132F309847031EF9D1BB682D22BA1812785A712A
S1132F402C23FB187A68927A1A702A23FB18002221
S1132F501A701CE02A23FB181B787A68D318DB7AD2
S1132F60002B0DD02A23FB181B7810229A40130043
S1132F70D9B22C23FB182C22BA1812780A431A70DF
S1132F802A23FB181A782A23FB1801321A702A23E1
S1132F90FB181B78012BDDD9C046FB681800184BC1
S1132FA09847031EF9D1BB682C22BA1812789A717B
S1132FB0C046FB681800124B9847031EF9D1FB6802
S1132FC01B79042B1ED0082B00D170E0002B4BD0B2
S1132FD090E0C046612C0000CCCA000009C2000089
S1132FE0D0CA0000A8100020112C0000B1B10000CC
S1132FF0B52B00009D2B0000C5AE000009AF0000FA
S1133000392C0000C046FB6818003D4B9847031E4E
S1133010F9D17B6828229A5CBB681A74C046FB68A5
S11330201800374B9847031EF9D17B6829229A5C14
S1133030BB681A75C046FB681800314B9847031EDD
S1133040F9D17B682A229A5CBB681A76C046FB6871
S113305018002B4B9847031EF9D17B682B229A5CEE
S1133060BB685A76002346E0C046FB681800244B30
S11330709847031EF9D17B681A8DBB681A82C04633
S1133080FB6818001E4B9847031EF9D17B685A8DC4
S1133090BB681A83C046FB681800194B9847031E87
S11330A0F9D17B689A8DBB685A83002323E0C0461C
S11330B0FB681800124B9847031EF9D17B689A6A83
S11330C0BB681A61C046FB6818000D4B9847031E85
S11330D0F9D17B68DA6ABB689A61C046FB6818005C
S11330E0074B9847031EF9D17B681A6BBB68DA61FA
S11330F0002300E017231800BD460DB090BDC04664
S1133100392C000080B584B000AF78607B681B6800
S1133110FB60C0467B6818000E4B9847031EF9D12C
S11331207B681B79042B04D0082B0AD0002B04D015
S11331300AE0FB681B7CDBB207E0FB681B8A9BB2DE
S113314003E0FB681B6900E000231800BD4604B0DF
S113315080BDC046392C000080B586B000AFF86051
S11331607A600B23FB180A1C1A70FB681B687B61CE
S1133170C046FB681800204B9847031EF9D1FB6832
S11331801B79042B04D0082B22D0002B10D02EE066
S11331900B23FB181B78012B0AD80B23FB181B7875
S11331A07A68D1B27A69D3180A1C1A7600231FE010
S11331B00B23FB181B78012B0AD80B23FB181A7856
S11331C07B6899B27B690C325200D15200230FE024
S11331D00B23FB181B78012B09D80B23FB181A7837
S11331E07B69063292007968D150002300E01723EE
S11331F01800BD4606B080BD392C000080B584B0EF
S113320000AF0200FB1D1A700F23FB18FA1D127881
S1133210D2091A700E23FB18FA1D127852091A707B
S11332200D4BBB600F23FB181B78002B0FD10F2312
S1133230FB181B789B0010229446BC446344083B53
S11332401A680E23FB181B78DB01D31800E0002357
S11332501800BD4604B080BD0044004180B582B072
S113326000AF0200FB1D1A70FB1D1B781800034BF6
S1133270984703001800BD4602B080BDFD31000030
S113328080B584B000AF0200FB1D1A70BB1D0A1C80
S11332901A70FB1D1B7818000D4B98470300FB6048
S11332A0FB1D1B781F22134001229A401300BB60B0
S11332B0BB1D1B78002B03D0FB68BA689A6102E03F
S11332C0FB68BA685A61C046BD4604B080BDC046BA
S11332D05D32000080B584B000AF0200FB1D1A709F
S11332E0FB1D1B781800094B98470300FB60FB1D6E
S11332F01B781F22134001229A401300BB60FB6815
S1133300BA68DA61C046BD4604B080BD5D320000D3
S113331080B582B000AF274B00221A73254B264A92
S11333201A61264B01221A73244B254A1A61254B34
S113333000221A60244B00225A81234B02221A7362
S1133340214B02225A73204B02229A731E4B1F4AAE
S11333509A61FB1D00221A701FE0FB1D19781C4A9C
S11333600B00DB005B18995C012040420143995437
S1133370D3185A78012149420A435A70FB1D1A781E
S113338013491300DB009B18CB18033300221A7077
S1133390FB1D1A78FB1D01321A70FB1D1B78042BD0
S11333A0DBD90C4B190002200B4B9847C046BD4695
S11333B002B080BD9C010020D9390000B00100207A
S11333C00D3A0000F4010020F80100203938000013
S11333D0C4010020E5380000CD63000080B584B04E
S11333E000AF0200BB1D1A800F23FB1801221A70C4
S11333F026E00F23FB181978164A0B00DB005B1834
S1133400995CD3185B781B020B439BB2BA1D1288DC
S11334109A420ED10F23FB181A780E491300DB00D1
S11334209B18CB18033301221A700B4B98470123C6
S11334300CE00F23FB181A780F23FB1801321A70C3
S11334400F23FB181B78042BD3D900231800BD4687
S113345004B080BDC40100207D38000080B582B076
S113346000AF0200FB1D1A704C4B1B78042B00D9D3
S11334708BE09A004A4BD3181B689F46FB1D1B78B0
S1133480102B00D083E0474B00221A70464BFA1DE4
S113349012781A70414B01221A7078E0424B1A7864
S11334A0FB1D1B78D318DAB23F4B1A70FB1D1B7837
S11334B0022B03D1394B02221A706BE0374B0022E6
S11334C01A7067E0384B1A78FB1D1B78D318DAB2F0
S11334D0354B1A70FB1D1B78102B03D12F4B032285
S11334E01A700AE02F4B1B785A1CD1B22D4A117066
S11334F019002E4BFA1D12785A542A4B1B78102BA4
S113350047D1264B00221A7043E0274B1A78FB1D43
S11335101B78D318DAB2244B1A70FB1D1B78102BBE
S113352016D1204B1B785A1CD1B21E4A11701900B7
S11335301E4BFA1D12785A541A4B1B78102B03D1C8
S1133540164B00221A7025E0144B02221A7021E057
S1133550FB1D1B78032B03D1104B04221A7019E0B6
S11335600E4B00221A7015E00F4B1B78FA1D1278CF
S11335709A4206D10B4B1A780C4B110018000C4BD5
S11335809847064B00221A7004E0C04602E0C04689
S113359000E0C046C046BD4602B080BD86010020A2
S11335A0D8CA00008701002098010020880100206B
S11335B0B5350000B0B586B000AF78600A00FB1CDA
S11335C01A707B687B61FB1C1B78082B60D97B69B4
S11335D01B78102B5DD17B683B610823FB181022FC
S11335E01A703B695A7A9B7A1B0213439AB20823D6
S11335F0FB180133FF2111400C0019780020014011
S1133600081C211C01431970120A90B25A78002137
S11336100A40111C021C0A435A703B69DA7A1B7B6C
S11336201B0213439AB20823FB180333FF211140F2
S11336300C00197800200140081C211C014319705A
S1133640120A90B25A7800210A40111C021C0A4343
S11336505A707B695A78997809020A43D97809041F
S11336600A43197909060A4314005A799979090217
S11336700A43D97909040A431B7A1B0613431D0024
S1133680A3B20822B91805221800034B984700E09A
S1133690C046BD4606B0B0BD9D360000B0B584B08E
S11336A000AF39601100BB1D021C1A807B1D0A1C6F
S11336B01A70BB1D1B88002B07D17B1D1A783B6831
S11336C011001800434B984780E0BB1D00229B5E0D
S11336D0002B62DA0F23FB1801221A7057E00F2324
S11336E0FB1819783C4A0B00DB005B18995CD31873
S11336F05B781B020B439BB2384A934240D10F23A1
S1133700FB181978344A0B00DB005B18B91D0D78DF
S1133710985C00242040041C281C204398544878BA
S1133720D3185A7800210A40111C021C0A435A700B
S11337300F23FB181A7828491300DB009B18CB18B9
S113374002337A1D12781A700F23FB181A78224953
S11337501300DB009B18CB18033300221A700F23CD
S1133760FB181A781300DB009B181B4A9B18181DC2
S11337707B1D1A783B681900194B9847C04625E011
S11337800F23FB181A780F23FB1801321A700F232A
S1133790FB181B78042BA2D918E00F4B1B880F4A87
S11337A0934213D10C4BBA1D12881A800A4B7A1D0E
S11337B012789A70084B0122DA707B1D1A783968E6
S11337C0084B1800064B9847074B9847C046BD4620
S11337D004B0B0BD0D390000C4010020FFFF00009B
S11337E009C20000C80100207D38000080B582B005
S11337F000AF78600D4B7A681A607B681A785B7842
S11338001B0213439AB20A4B5A817B681A1D084B58
S11338101A617B689A78064B1A75054B1800054B9C
S11338209847C046BD4602B080BDC046F4010020A2
S1133830F80100207564000080B582B000AF7860A4
S11338400C4B1B681A78012149420A431A705A78B2
S1133850012149420A435A70064B1B680022DA7060
S1133860044B00221A60044B9847C046BD4602B080
S113387080BDC046F40100207D38000080B582B0D0
S113388000AF154B1B68002B22D1FB1D00221A70C0
S113389019E0FB1D1A7811491300DB009B18CB18A3
S11338A003331B78002B09D0FB1D1A781300DB00AF
S11338B09B180A4A9B181800094B9847FB1D1A7855
S11338C0FB1D01321A70FB1D1B78042BE1D900E0AB
S11338D0C046BD4602B080BDF4010020C4010020F2
S11338E0ED37000080B582B000AF78607B689A68DD
S11338F07B681B7B19001000034B984703001800DA
S1133900BD4602B080BDC0460D39000080B584B00C
S113391000AF78600A00FB1C1A707B68FB60FB1C1C
S11339201B78002B01D1002342E0FB681B78102B8D
S11339303DD17B68BB60FB1C1B78052B01D00023A9
S113394036E01D4B18001D4B98471D4B18001B4BB0
S11339509847BB685A789B781B0213439BB21A00A2
S1133960154B9A60144B00221A73134B154A1A61B3
S1133970114B1800144B9847BB68DA781B791B026B
S113398013439BB21A000E4B9A600D4B01221A731B
S11339900B4B0E4A1A610A4B18000B4B9847002137
S11339A013200B4B98470B4B9847012300E000234F
S11339B01800BD4604B080BD9C010020DD5A000003
S11339C0B0010020D9390000A55A00000D3A0000CA
S11339D081320000F563000080B582B000AF7860EA
S11339E0064B984701211320054B9847054B1800B7
S11339F0054B9847C046BD4602B080BD1564000023
S1133A0081320000B0010020DD5A000080B582B090
S1133A1000AF78601320034B9847C046BD4602B000
S1133A2080BDC046D532000080B584B000AF02002E
S1133A30FB1D1A700F23FB18FA1D1278D2091A7095
S1133A400E23FB18FA1D127852091A700D4BBB6035
S1133A500F23FB181B78002B0FD10F23FB181B78A7
S1133A609B0010229446BC446344083B1A680E230E
S1133A70FB181B78DB01D31800E000231800BD46B7
S1133A8004B080BD0044004180B582B000AF0200A4
S1133A90FB1D1A70FB1D1B781800034B984703008D
S1133AA01800BD4602B080BD293A000080B584B03C
S1133AB000AF0200FB1D1A70BB1D0A1C1A70FB1D0F
S1133AC01B7818000D4B98470300FB60FB1D1B7807
S1133AD01F22134001229A401300BB60BB1D1B78B8
S1133AE0002B03D0FB68BA689A6102E0FB68BA68ED
S1133AF05A61C046BD4604B080BDC046893A000044
S1133B0080B584B000AF0200FB1D1A70FB1D1B784A
S1133B101800094B98470300FB60FB1D1B781F220C
S1133B20134001229A401300BB60FB68BA68DA6153
S1133B30C046BD4604B080BD893A000080B584B05B
S1133B4000AF02003960BB1D1A800E23FB1800224F
S1133B501A800FE00E23FB181B883A68D3181B78D1
S1133B6018000A4B98470E23FB181A880E23FB18DB
S1133B7001321A800E23FA18BB1D12881B889A4240
S1133B80E8D3C046BD4604B080BDC0465D340000E5
S1133B9080B584B000AF78600A00FB1C1A700F2354
S1133BA0FB1800221A7010202B4B984702202A4B36
S1133BB098470E23FB1800221A702EE00E23FB18E0
S1133BC01B787A68D3181B78102B09D11020224B4C
S1133BD098470F23FB180F22BA18127810321A7064
S1133BE00E23FB181B787A68D3181B7818001A4B1D
S1133BF098470E23FB181B787A68D31819780F237B
S1133C00FB180F22BA1812788A181A700E23FB18A0
S1133C101A780E23FB1801321A700E23FA18FB1CB3
S1133C2012781B789A42C9D310200B4B9847032073
S1133C30094B98470F23FB180F22BA181278253224
S1133C401A700F23FB181B781800034B9847C046C3
S1133C50BD4604B080BDC0465D21000080B584B07F
S1133C6000AF78607B689B68FB601320104B98471B
S1133C707B685A7BFB685A767B680E229A56FB68EF
S1133C809A767B689A687B681B7B19001000094B45
S1133C9098477B681B881800074B9847031E02D07F
S1133CA00120064B984701231800BD4604B080BD8F
S1133CB0013B0000913B0000DD330000997C0000D3
S1133CC080B582B000AF7860074B1B78042B03D11A
S1133CD0054B01221A7003E0044B1800044B98476B
S1133CE0C046BD4602B080BD180200206C02002010
S1133CF0A55A0000B0B500AF00210020134B98472F
S1133D0003001A00124B1733FF2111400C001978DD
S1133D1000200140081C211C01431970120A90B2B2
S1133D205A7800210A40111C021C0A435A70084B9D
S1133D303A211800074B9847074B1800074B984740
S1133D40074B04221A70C046BD46B0BDD16B0000BB
S1133D5030020020913B00006C020020A55A0000B4
S1133D601802002080B500AF664B01221A70654B23
S1133D7000225A70634B02331A8800210A401A80C9
S1133D805A8800210A405A809A8800210A409A8061
S1133D90DA8800210A40DA805A4B00225A81594BB2
S1133DA0594ADA60574B802212021A61554B574A1E
S1133DB09A82544B0F229A75524B17331A7800216A
S1133DC00A401A705A7800210A405A704D4B00225A
S1133DD05A764C4B00229A764A4B0122DA76494BAA
S1133DE010221A77474B1D331A7800210A401A70A3
S1133DF05A7800210A405A709A7800210A409A7031
S1133E00DA7800210A40DA703E4B21331A78002117
S1133E100A401A705A7800210A405A709A78002190
S1133E200A409A70DA7800210A40DA70354B293357
S1133E301A7800210A401A705A7800210A405A70F0
S1133E409A7800210A409A70DA7800210A40DA70E0
S1133E502C4B25331A7800210A401A705A78002115
S1133E600A405A709A7800210A409A70DA78002140
S1133E700A40DA70234B2D2220219954214B2E2203
S1133E800B2199541F4B2F2221499B180B221800F8
S1133E90204B98470020204B98471C4B18001F4B81
S1133EA098470F201E4B984701201E4B98471E4BE6
S1133EB018001E4B98471E4B190001201D4B9847B4
S1133EC01D4BFA22D2009A601B4B00221A731A4B24
S1133ED01A4A1A6113201A4B98471320184B984713
S1133EE000211320174B9847174B984703001800DD
S1133EF0164B9847164B9847164B01221A70C0462A
S1133F00BD4680BD300200200001010134120000D2
S1133F10ECCA000009C200006D6300009D6300004C
S1133F209D5E0000755E0000F8CA0000E584000094
S1133F305D3C0000CD6300006C020020C13C000029
S1133F40013B0000AD3A0000D15F00002DC200002B
S1133F50113300001802002080B582B000AF174B67
S1133F601B78012B07D0032B08D0002B00D00DE0C9
S1133F70134B98470AE0134B984707E0124B18007D
S1133F80124B98470D4B04221A70C046104B142153
S1133F901800104B984703001A00BB1D1A80BB1D64
S1133FA01B88002B06D00A4ABB1D1B881100180071
S1133FB0094B9847C046BD4602B080BD1802002098
S1133FC0653D0000F53C00006C020020A55A00008D
S1133FD01C020020612000003D3B000080B500AFC2
S1133FE0034B9847034B9847C046BD4680BDC04627
S1133FF069590000691F000080B500AF034B984762
S1134000034B9847C046BD4680BDC0469559000045
S1134010593F000080B500AFC046BD4680BDC046D4
S113402080B586B000AF786008001100FB1C021C4C
S11340301A70BB1C0A1C1A707B68002B1CD05E4BC8
S113404000221A705D4B02221A705D4A7B681000D0
S1134050190010231A005B4B98475B4B10221A700F
S11340605A4B796810221800564B9847564B112228
S113407019008320564B9847BB1C1B78002B02D099
S1134080012B16D053E04D4B1B78012B51D14E4BD5
S113409010221A704D4A4A4B1000190010231A00BE
S11340A0484B9847484B112219008320484B9847A6
S11340B03FE0424B1B78012B3DD0434B10221A703A
S11340C03D4B1B7801225340DBB2002B1DD03E4BED
S11340D000221A703C4B80225A743E4B01221A7003
S11340E00823FB18002118003B4B9847364B10223D
S11340F01A70354B012219008320354B9847374BF2
S1134100102219008420364B9847304A334B100054
S1134110190010231A002B4B98472B4B112219001E
S113412083202B4B9847244B01221A7003E0002371
S11341303DE0C04600E0C046204BBA1C12781A701D
S1134140FB1C1B78002B01D0022B2FD1FB1C1B78EE
S11341501B015BB2702213405AB2BB1C1B78DB00FC
S11341605BB208210B405BB213435BB2DAB2164B6D
S11341701A70FB1C1B781B015BB2702213405AB2ED
S1134180BB1C1B78DB005BB208210B405BB2134302
S11341905BB28022524213435BB2DAB20A4B5A74C6
S11341A0C0460C4B01221A70012300E000231800C2
S11341B0BD4606B080BDC04681020020000000203C
S11341C09802002009C20000840200208502002019
S11341D0754E000080020020E5410000A802002086
S11341E03950000080B584B000AF786039601A4B54
S11341F0796810221800194B98470F23FB18184AA6
S1134200527C1A70174B1B78002B09D0144B1222C6
S113421019008320144B9847124B00221A7005E0B2
S11342200D4B1122190084200F4B98473B68002B3B
S113423005D009493B6810221800084B9847084BE1
S11342400F22BA1812785A741820084B9847C0469F
S1134250BD4604B080BDC0468502002009C20000EE
S11342608402002080020020115200006DA2000090
S113427080B582B000AF78607B681022190084207A
S1134280024B9847C046BD4602B080BD395000007D
S113429080B582B000AFEFF310837B607B685A4235
S11342A05341DBB23B6072B6BFF35F8F034B002216
S11342B01A703B681800BD4602B080BD1000002093
S11342C080B582B000AF78607B685A1E9341DBB240
S11342D01800BD4602B080BD80B582B000AF7860E2
S11342E07B681800064B9847031E05D0054B012236
S11342F01A70BFF35F8F62B6C046BD4602B080BD80
S1134300C14200001000002080B584B000AF02005C
S1134310FB1D1A700F23FB18FA1D1278D2091A70AC
S11343200E23FB18FA1D127852091A700D4BBB604C
S11343300F23FB181B78002B0FD10F23FB181B78BE
S11343409B0010229446BC446344083B1A680E2325
S1134350FB181B78DB01D31800E000231800BD46CE
S113436004B080BD0044004180B582B000AF0200BB
S1134370FB1D1A70FB1D1B781800034B98470300A4
S11343801800BD4602B080BD0943000080B582B06C
S113439000AF78607B6800221A707B6801225A7033
S11343A07B6800229A70C046BD4602B080BDC046FC
S11343B080B584B000AF0200FB1D1A70BB1D0A1C3F
S11343C01A70FB1D1B7818000D4B98470300FB6007
S11343D0FB1D1B781F22134001229A401300BB606F
S11343E0BB1D1B78002B03D0FB68BA689A6102E0FE
S11343F0FB68BA685A61C046BD4604B080BDC04679
S11344006943000080B582B000AF0200FB1D1A7042
S1134410064BFA1D127811001F220A400121914017
S11344200A001A60C046BD4602B080BD00E100E04B
S113443080B584B000AF78607B681B68FB60FB6864
S1134440DB695A1E9341DBB21800BD4604B080BD3F
S113445080B582B000AF78607B6801221A707B68F7
S113446000225A607B6800229A607B68C022920313
S1134470DA607B6800221A747B6800225A747B68B5
S113448001229A747B680122DA747B6800221A750F
S11344907B682422002199547B6818330C22002164
S11344A018000A4B98477B68094A9A617B68002286
S11344B09A627B680022DA627B6800221A637B6856
S11344C000225A63C046BD4602B080BD1BC2000034
S11344D0A086010080B582B000AF78607B680A22B4
S11344E01A707B6800225A707B6800229A70C0465A
S11344F0BD4602B080BDC04680B584B000AF7860D0
S113450039603B681A787B681A703B685A787B6814
S11345105A703B689A787B689A700C23FB181800D1
S11345200B4B98470C23FB1801221A707B681B78ED
S11345300C22BA1811001800064B98477B681B78A8
S113454001211800044B9847C046BD4604B080BD05
S11345508D430000C5A20000B143000080B584B0C3
S113456000AF78607B681B68FB607B681B68180081
S11345700B4B9847030018000A4B9847C0467B68CA
S11345801800094B9847031EF9D1FB681B680222E7
S11345901A43FB681A60C046BD4604B080BDC046DD
S11345A0D99E0000054400003144000080B584B069
S11345B000AF78607B681B68FB60FB681B7EDBB226
S11345C01A00022313405A1E9341DBB21800BD4661
S11345D004B080BD80B584B000AF78607B681B6890
S11345E0FB60FB681B7EDBB21A00012313405A1EDA
S11345F09341DBB21800BD4604B080BD80B584B0E1
S113460000AF78607B681B68FB60FB681B7EDBB2D5
S11346101A00042313405A1E9341DBB21800BD460E
S113462004B080BD80B584B000AF78600A00BB1CC4
S11346301A807B681B68FB607B6818000A4B9847EC
S113464003001A0001235340DBB2002B01D00523E1
S113465006E0BB1C1B88DB05DA0DFB689A620023AD
S11346601800BD4604B080BDD545000080B584B0B7
S113467000AF786039607B681B68BB607B6818009A
S11346801B4B984703001A0001235340DBB2002B55
S113469001D0102327E00F23FB1800221A70BB68F7
S11346A05B8B9BB21A000423134006D00F23FB1824
S11346B01E221A70BB6804225A837B689B79012BE3
S11346C008D1BB689B6A9BB2DB05DB0D9AB23B68E1
S11346D01A8005E0BB689B6ADBB29AB23B681A8019
S11346E00F23FB181B781800BD4604B080BDC046DC
S11346F0FD45000080B584B000AF0200FB1D1A70B8
S11347000F23FB18FA1D127852091A700F23FB1895
S11347101B78002B0CD1094BBB600F23FB181B78B3
S11347209B0010229446BC446344083B1B6800E091
S113473000231800BD4604B080BDC04600180040E8
S113474080B584B000AF0200FB1D1A70FB1D1B78FE
S11347501800094B98470300FB60FB1D1B781F22C0
S1134760134001229A401300BB60FB68BA681A61C7
S1134770C046BD4604B080BDF546000080B500AF1C
S11347800020064B9847064B1B68002B02D0044BB5
S11347901B689847C046BD4680BDC04641470000DF
S11347A0B802002080B584B000AF374B1800374BF7
S11347B09847354B3F221A700C23FB181800344BD2
S11347C098470C23FB1801221A700C23FB181900BC
S11347D02F20304B98470C23FB18190014202D4B25
S11347E09847294A2C4B110018002C4B98472C4B06
S11347F018002C4B98472A4B80225202DA60284B2F
S1134800294A9A61264B294A9A62254B012252422F
S1134810DA62234B264A1A63214B264A5A63204BF9
S11348202422032199541E4A2349244B1800244B63
S11348309847224B1800234B98473B001800224B03
S113484098473B0020221A603B00802292035A6062
S11348503B0002221A723B0001225A723B000022E2
S11348609A723B000122DA723B0019000020174BB8
S11348709847174B002200211800164B9847C04652
S1134880BD4604B080BDC0467C0F0020D544000066
S11348908D430000C5A20000800F0020F9440000F1
S11348A0840F00205144000000093D00050053001E
S11348B005003E000500520000180042BC0F002015
S11348C0619700005D4500009D240000D124000094
S11348D07D47000081A0000080B500AF01212F209A
S11348E00C4B9847002114200A4B9847A5235B00E2
S11348F01800094B984700212F20064B98470A209F
S1134900054B984701212F20024B9847C046BD46CE
S113491080BDC046B14300006DA2000080B584B0E4
S113492000AF0200FB1D1A700C23FB1800221A8032
S1134930444B984702000F23FB181A70FB1DFA1D05
S11349401278802149420A431A703F493F4B0122A1
S113495018003F4B9847C0463C4B18003D4B9847C6
S113496003001A0001235340DBB2002BF4D1FB1DDA
S11349701B789AB2354B11001800374B9847C04644
S1134980324B1800354B984703001A00012353405B
S1134990DBB2002BF4D1C0462C4B1800304B9847A7
S11349A003001A0001235340DBB2002BF4D12D4A3B
S11349B0264B110018002C4B9847C046234B180077
S11349C0244B984703001A0001235340DBB2002B09
S11349D0F4D11E4B002118001F4B9847C0461B4BB7
S11349E018001E4B984703001A0001235340DBB202
S11349F0002BF4D1C046154B1800194B98470300FF
S1134A001A0001235340DBB2002BF4D10C23FA1813
S1134A100E4B11001800144B98470B490B4B002206
S1134A2018000B4B98470F23FB181B7818000F4BEB
S1134A3098470C23FB181B88DBB21800BD4604B052
S1134A4080BDC04691420000800F0020BC0F0020B2
S1134A5005990000D545000025460000AD4500003D
S1134A60FD450000780F00206D460000D94200008B
S1134A7080B584B000AF0200FB1D1A70BB1D0A1C78
S1134A801A70434B984702000F23FB181A70FB1D42
S1134A90FA1D1278402149420A431A703D493E4B9F
S1134AA0012218003D4B9847C0463B4B18003C4B35
S1134AB0984703001A0001235340DBB2002BF4D1C2
S1134AC0FB1D1B789AB2344B11001800354B9847E4
S1134AD0C046314B1800344B984703001A00012399
S1134AE05340DBB2002BF4D1C0462B4B18002F4BA4
S1134AF0984703001A0001235340DBB2002BF4D182
S1134B002B4A254B110018002A4B9847C046224BCC
S1134B101800234B984703001A0001235340DBB2CB
S1134B20002BF4D1BB1D1B789AB21B4B110018004B
S1134B301C4B9847C046184B18001B4B9847030062
S1134B401A0001235340DBB2002BF4D1C046124BB0
S1134B501800164B984703001A0001235340DBB298
S1134B60002BF4D1124A0C4B11001800114B98473A
S1134B700849094B00221800084B98470F23FB18DB
S1134B801B7818000C4B9847C046BD4604B080BD46
S1134B9091420000800F0020BC0F00200599000006
S1134BA0D545000025460000AD450000FD45000048
S1134BB0780F00206D460000D942000080B584B013
S1134BC000AF78600A00FB1C1A70494B984702003A
S1134BD00F23FB181A704749474B01221800474B13
S1134BE098470C23FB1820221A80C046424B180019
S1134BF0434B984703001A0001235340DBB2002BB8
S1134C00F4D10C23FB181A883B4B110018003D4BC0
S1134C109847C046384B18003B4B984703001A008E
S1134C2001235340DBB2002BF4D1C046324B1800B1
S1134C30364B984703001A0001235340DBB2002B84
S1134C40F4D1334A2C4B11001800324B984738E00A
S1134C50C046294B18002A4B984703001A00012329
S1134C605340DBB2002BF4D1234B00211800254B19
S1134C709847C046204B1800234B984703001A005E
S1134C8001235340DBB2002BF4D1C0461A4B180069
S1134C901E4B984703001A0001235340DBB2002B3C
S1134CA0F4D10C23FA18144B11001800194B98472F
S1134CB00C23FB181B88DAB27B681A707B680133FB
S1134CC07B60FB1C1B78FA1C591E1170002BBFD192
S1134CD00849094B00221800084B98470F23FB187A
S1134CE01B7818000C4B9847C046BD4604B080BDE5
S1134CF091420000800F0020BC0F002005990000A5
S1134D00D545000025460000AD450000FD450000E6
S1134D10780F00206D460000D942000080B584B0B1
S1134D2000AF78600A00FB1C1A70474B98470200DA
S1134D300F23FB181A704549454B01221800454BB7
S1134D4098470E23FB1860221A70C046404B180087
S1134D50414B984703001A0001235340DBB2002B58
S1134D60F4D10E23FB181B789AB2394B11001800AA
S1134D703A4B9847C046364B1800394B98470300C6
S1134D801A0001235340DBB2002BF4D1C046304B50
S1134D901800344B984703001A0001235340DBB238
S1134DA0002BF4D1304A2A4B110018002F4B98479E
S1134DB033E0C046264B1800274B984703001A00DF
S1134DC001235340DBB2002BF4D17B685A1C7A6078
S1134DD01B789AB21E4B11001800204B9847C0460E
S1134DE01B4B18001E4B984703001A000123534025
S1134DF0DBB2002BF4D1C046154B1800194B984771
S1134E0003001A0001235340DBB2002BF4D1164AED
S1134E100F4B11001800154B9847FB1C1B78FA1C0C
S1134E20591E1170002BC4D10849094B00221800E7
S1134E30084B98470F23FB181B7818000C4B984716
S1134E40C046BD4604B080BD91420000800F0020E2
S1134E50BC0F002005990000D54500002546000040
S1134E60AD450000FD450000780F00206D460000B0
S1134E70D942000080B584B000AF39601100FB1D39
S1134E80021C1A70BB1D0A1C1A70604B9847020062
S1134E900F23FB181A705E495E4B012218005E4B0B
S1134EA098470E23FB1840221A70C046594B18002D
S1134EB05A4B984703001A0001235340DBB2002BDE
S1134EC0F4D10E23FB181B789AB2524B1100180030
S1134ED0534B9847C0464F4B1800524B984703001A
S1134EE01A0001235340DBB2002BF4D1C046494BD6
S1134EF018004D4B984703001A0001235340DBB2BE
S1134F00002BF4D1494A434B11001800484B9847F1
S1134F10C046404B1800414B984703001A00012338
S1134F205340DBB2002BF4D1FB1D1B789AB2394BF2
S1134F30110018003A4B9847C046364B1800394BBD
S1134F40984703001A0001235340DBB2002BF4D12D
S1134F50C046304B1800344B984703001A00012315
S1134F605340DBB2002BF4D1304A2A4B1100180015
S1134F702F4B984733E0C046264B1800274B9847E1
S1134F8003001A0001235340DBB2002BF4D13B6829
S1134F905A1C3A601B789AB21E4B11001800204B21
S1134FA09847C0461B4B18001E4B984703001A0035
S1134FB001235340DBB2002BF4D1C046154B18003B
S1134FC0194B984703001A0001235340DBB2002B0E
S1134FD0F4D1164A0F4B11001800154B9847BB1D0E
S1134FE01B78BA1D591E1170002BC4D10849094BF6
S1134FF000221800084B98470F23FB181B78180051
S11350000C4B9847C046BD4604B080BD9142000099
S1135010800F0020BC0F002005990000D54500003A
S113502025460000AD450000FD450000780F002036
S11350306D460000D942000080B584B000AF3960ED
S11350401100FB1D021C1A70BB1D0A1C1A700120E2
S1135050634B9847634B984702000F23FB181A7061
S11350606149624B01221800614B98470C23FB18DD
S113507000221A80C0465D4B18005E4B984703001F
S11350801A0001235340DBB2002BF4D10C23FB188C
S11350901A88564B11001800574B9847C046534B7B
S11350A01800564B984703001A0001235340DBB203
S11350B0002BF4D1C0464D4B1800514B98470300C8
S11350C01A0001235340DBB2002BF4D14D4A474B65
S11350D0110018004C4B9847C046444B1800454BF0
S11350E0984703001A0001235340DBB2002BF4D18C
S11350F0FB1D1B789AB23D4B110018003E4B98479C
S1135100C0463A4B18003D4B984703001A00012350
S11351105340DBB2002BF4D1C046344B1800384B5B
S1135120984703001A0001235340DBB2002BF4D14B
S1135130344A2E4B11001800334B984738E0C046D0
S11351402A4B18002B4B984703001A0001235340A5
S1135150DBB2002BF4D1254B00211800264B9847D5
S1135160C046224B1800254B984703001A00012320
S11351705340DBB2002BF4D1C0461C4B1800204B2B
S1135180984703001A0001235340DBB2002BF4D1EB
S11351900C23FA18154B110018001B4B98470C23CD
S11351A0FB181B88DAB23B681A703B6801333B601A
S11351B0BB1D1B78BA1D591E1170002BBFD10A49A3
S11351C00A4B002218000A4B98470F23FB181B7840
S11351D018000E4B9847C046BD4604B080BDC0467B
S11351E06DA2000091420000800F0020BC0F00203F
S11351F005990000D545000025460000AD45000096
S1135200FD450000780F00206D460000D9420000E3
S113521080B584B000AF39601100FB1D021C1A7008
S1135220BB1D0A1C1A700823FB1800221A800120D7
S11352309A4B984700210020994B984799499A4BDB
S113524001221800994B98470B23FB1840221A702F
S1135250C046954B1800964B984703001A0001234B
S11352605340DBB2002BF4D10B23FB181B789AB20A
S11352708D4B110018008F4B9847C0468A4B18007D
S11352808D4B984703001A0001235340DBB2002BD7
S1135290F4D1C046844B1800884B984703001A0089
S11352A001235340DBB2002BF4D1854A7E4B11001D
S11352B01800844B9847C0467B4B18007C4B98479A
S11352C003001A0001235340DBB2002BF4D1FB1D71
S11352D01B789AB2744B11001800764B9847C0465D
S11352E0714B1800744B984703001A000123534074
S11352F0DBB2002BF4D1C0466B4B18006F4B9847C0
S113530003001A0001235340DBB2002BF4D16C4A92
S1135310654B110018006B4B98473B68FB60C04617
S1135320614B1800624B984703001A000123534055
S1135330DBB2002BF4D13B685A1C3A601B789AB25A
S1135340594B110018005B4B9847C046564B180048
S1135350594B984703001A0001235340DBB2002B3A
S1135360F4D1C046504B1800544B984703001A0020
S113537001235340DBB2002BF4D1514A4A4B1100B4
S11353801800504B984741E0C046474B1800484B23
S1135390984703001A0001235340DBB2002BF4D1D9
S11353A03B685A1C3A601B789AB23F4B11001800B4
S11353B0404B9847C0463C4B18003F4B984703006E
S11353C01A0001235340DBB2002BF4D1C046364B04
S11353D018003A4B984703001A0001235340DBB2EC
S11353E0002BF4D10823FA182F4B11001800354B69
S11353F09847FB685A1CFA600822BA181288D2B27D
S11354001A70BB1D1A78BB1D013A1A70BB1D1B789C
S1135410002BB9D1C046244B1800254B98470300F4
S11354201A0001235340DBB2002BF4D11E4B0021A0
S11354301800204B9847C0461B4B18001E4B98473A
S113544003001A0001235340DBB2002BF4D1C04601
S1135450154B1800194B984703001A0001235340B9
S1135460DBB2002BF4D10823FA180F4B11001800FB
S1135470144B98470823FB181B88DAB2FB681A7090
S11354800849094B00221800084B984700210020C6
S11354900D4B9847C046BD4604B080BD6DA20000C8
S11354A02DA10000800F0020BC0F002005990000F2
S11354B0D545000025460000AD450000FD4500002F
S11354C0780F00206D460000E5A0000080B582B092
S11354D000AF0200FB1D1A70064BFA1D1278110072
S11354E01F220A40012191400A001A60C046BD46AD
S11354F002B080BD00E100E080B584B000AF786008
S11355007B681B68FB60FB68DB7BDBB21A008023D3
S113551013405A1E9341DBB21800BD4604B080BD4F
S113552080B582B000AF78607B6800221A707B6817
S113553000229A707B6800229A807B6800229A710C
S11355407B6800221A817B6800225A707B680022E3
S11355509A727B680022DA727B6800221A737B6875
S113556000229A737B6800225A737B6800221A74A3
S11355707B6800225A617B6800229A617B68002262
S11355801A777B6800221A627B6800225A627B6861
S113559000221A857B6800225A857B6800229A853E
S11355A0C046BD4602B080BD80B584B000AF78600F
S11355B07B681B68FB60C0467B681800074B9847F4
S11355C0031EF9D1FB681B889BB2022213439AB2D3
S11355D0FB681A80C046BD4604B080BDF954000083
S11355E080B584B000AF786039607B681B68BB60AD
S11355F00023FB603B680122134003D0FB681022A8
S11356001343FB603B680222134003D0FB68202253
S11356101343FB603B680422134003D0FB68082259
S11356201343FB603B680822134003D0FB6802224B
S11356301343FB603B681022134003D0FB68012234
S11356401343FB60FB68DAB2BB689A73C046BD467D
S113565004B080BD80B582B000AF7860044A7B6836
S1135660D3181B785BB21800BD4602B080BDC0469B
S11356700400002080B582B000AF78600A00FB1CF3
S11356801A707B681B681800224B984703001800A7
S1135690214B984703001800204B9847FB1C1B78AC
S11356A0022B0BD17B685B7E10221343DAB27B683A
S11356B05A767B681B6810225A7326E0FB1C1B7801
S11356C0032B0BD17B685B7E20221343DAB27B6809
S11356D05A767B681B6820225A7316E07B685B7ECF
S11356E05AB2FB1C1B78012199400B005BB2134397
S11356F05BB2DAB27B685A767B681B68FA1C127854
S1135700012191400A00D2B25A73C046BD4602B08C
S113571080BDC046612C000055560000CD540000E9
S113572080B582B000AF78600A00FB1C1A70FB1CC5
S11357301B78022B0BD17B681B6810221A737B68C1
S11357405B7E10229343DAB27B685A7628E0FB1C16
S11357501B78032B0BD17B681B6820221A737B6890
S11357605B7E20229343DAB27B685A7618E07B682A
S11357701B68FA1C1278012191400A00D2B21A73F4
S11357807B685B7E5BB2FA1C1278012191400A00AF
S113579052B2D24352B213405BB2DAB27B685A7649
S11357A0C046BD4602B080BD80B500AF044B1800B2
S11357B0044B984703009BB21800BD4680BDC04609
S11357C02C1000200531000080B500AF034B0221EE
S11357D01800034B9847C046BD4680BD2C100020DE
S11357E02157000080B500AF064B01211800064B7D
S11357F09847044B02211800044B9847C046BD4605
S113580080BDC0462C100020E155000075560000F4
S113581080B582B000AF0200BB1D1A80BB1D1A8880
S1135820044B00211800044B9847C046BD4602B003
S113583080BDC0462C1000205931000080B582B0D4
S113584000AF7860024B9847C046BD4602B080BDA9
S113585071B4000080B582B000AF7860024B984705
S1135860C046BD4602B080BDB9B4000080B582B068
S113587000AF2B4B18002B4B9847294B0122524267
S11358805A85274A2849294B1800294B9847294902
S1135890264B00221800284B98472849234B022204
S11358A01800254B9847214B00211800244B98479A
S11358B01E4B1800234B98470020234B98470200A7
S11358C0224B10009847021C214B2249101C984778
S11358D0031C7B60204B7868984702001B4B100028
S11358E09847021C1D4B111C78689847031C1A1C0E
S11358F01B4BFC218905101C9847031E06D0194B2D
S1135900FE21890578689847031C7B60124B7868F0
S113591098470300DBB21800BD4602B080BDC04604
S1135920F80F002021550000002C00422C1000200C
S1135930A92C00003D580000F590000055580000C7
S113594075560000A9550000EDAD000041C10000EE
S11359505DBA00000024744941B70000F1BD0000A5
S113596059B6000071B7000080B500AF054B9847E9
S1135970054B9847054B9847054B9847C046BD468D
S113598080BDC0465D5A000015400000F15D000076
S1135990E162000080B500AF044B9847044B984780
S11359A0044B9847C046BD4680BDC046A96100006F
S11359B035640000855B000080B582B000AF78607C
S11359C039603A687B6811001800044B9847044B0F
S11359D09847C046BD4602B080BDC0465560000031
S11359E02186000080B582B000AFEFF310837B60A6
S11359F07B685A425341DBB23B6072B6BFF35F8FA0
S1135A00034B00221A703B681800BD4602B080BDEB
S1135A101000002080B582B000AF78607B685A1E09
S1135A209341DBB21800BD4602B080BD80B582B0A0
S1135A3000AF78607B681800064B9847031E05D0BA
S1135A40054B01221A70BFF35F8F62B6C046BD4694
S1135A5002B080BD155A00001000002080B500AFD0
S1135A60094B00221A70094B1800094B9847094B3F
S1135A709847094B1800094B9847094B00221A60B4
S1135A80C046BD4680BDC04648100020ED5C000005
S1135A90D5B4000051B4000010270000E5B30000A5
S1135AA0BC02002080B582B000AF78607B6818002B
S1135AB0084B984703001A0001235340DBB2002B24
S1135AC003D07B681800044B9847C046BD4602B01B
S1135AD080BDC0464D5B00004D5C000080B584B0C5
S1135AE000AF78600023FB60174B1B68BB6022E0AB
S1135AF0BA687B689A4219D1FB68002B04D0BB6852
S1135B001A68FB681A6003E0BB681A680E4B1A60D7
S1135B10BB681B68002B12D0BB681B68BA6812688C
S1135B2051687A6852688A185A6008E0BB68FB605A
S1135B30BB681B68BB60BB68002BD9D100E0C046C2
S1135B40C046BD4604B080BDBC02002080B584B010
S1135B5000AF78600A4B1B68FB6008E0FA687B685A
S1135B609A4201D1012306E0FB681B68FB60FB68D5
S1135B70002BF3D100231800BD4604B080BDC046FD
S1135B80BC02002080B584B000AF2B4B1B78DBB285
S1135B90002B4CD0294B98470300BB60FB1D264AC1
S1135BA012781A70244B00221A70BB681800244B18
S1135BB09847FB1D1A7813009B009B185B00FB6041
S1135BC01EE0204B1B683B601E4B1B685B68FA6839
S1135BD0D31AFB601B4B1B681A681A4B1A603B688C
S1135BE01B7B012B03D13B681800174B98473B687C
S1135BF01B69002B04D03B681B693A681000984766
S1135C00104B1B68002B05D00E4B1B685A68FB68B1
S1135C109A42D6D90B4B1B68002B09D0094B1B6841
S1135C20084A12685168FA688A1A5A6000E0C04645
S1135C30BD4604B080BDC04648100020E5590000B0
S1135C402D5A0000BC0200204D5C000080B586B0D7
S1135C5000AF7860244B1B68002B37D000237B6196
S1135C607B689B683B61204B1B68FB6015E0FB680D
S1135C705A683B699A4206D9FB685A683B69D21A4A
S1135C80FB685A600CE0FB685B683A69D31A3B61B5
S1135C90FB687B61FB681B68FB60FB68002BE6D13B
S1135CA07B683A695A607B69002B07D07B691A6864
S1135CB07B681A607B697A681A6011E00A4B1A687B
S1135CC07B681A60084B7A681A6009E07B680022D6
S1135CD01A607B689A687B685A60034B7A681A601A
S1135CE0C046BD4606B080BDBC02002080B500AFF2
